{
  "_format": "hh-sol-artifact-1",
  "contractName": "AlertEngine",
  "sourceName": "src/AlertEngine.sol",
  "abi": [
    {
      "inputs": [],
      "stateMutability": "nonpayable",
      "type": "constructor"
    },
    {
      "inputs": [],
      "name": "OnlyReactivityPrecompile",
      "type": "error"
    },
    {
      "inputs": [
        {
          "internalType": "address",
          "name": "owner",
          "type": "address"
        }
      ],
      "name": "OwnableInvalidOwner",
      "type": "error"
    },
    {
      "inputs": [
        {
          "internalType": "address",
          "name": "account",
          "type": "address"
        }
      ],
      "name": "OwnableUnauthorizedAccount",
      "type": "error"
    },
    {
      "anonymous": false,
      "inputs": [
        {
          "indexed": true,
          "internalType": "uint256",
          "name": "ruleId",
          "type": "uint256"
        },
        {
          "indexed": true,
          "internalType": "address",
          "name": "ruleOwner",
          "type": "address"
        },
        {
          "indexed": false,
          "internalType": "address",
          "name": "from",
          "type": "address"
        },
        {
          "indexed": false,
          "internalType": "address",
          "name": "to",
          "type": "address"
        },
        {
          "indexed": false,
          "internalType": "uint256",
          "name": "amount",
          "type": "uint256"
        },
        {
          "indexed": false,
          "internalType": "string",
          "name": "message",
          "type": "string"
        },
        {
          "indexed": false,
          "internalType": "uint256",
          "name": "timestamp",
          "type": "uint256"
        }
      ],
      "name": "AlertTriggered",
      "type": "event"
    },
    {
      "anonymous": false,
      "inputs": [
        {
          "indexed": true,
          "internalType": "address",
          "name": "previousOwner",
          "type": "address"
        },
        {
          "indexed": true,
          "internalType": "address",
          "name": "newOwner",
          "type": "address"
        }
      ],
      "name": "OwnershipTransferred",
      "type": "event"
    },
    {
      "anonymous": false,
      "inputs": [
        {
          "indexed": true,
          "internalType": "uint256",
          "name": "ruleId",
          "type": "uint256"
        },
        {
          "indexed": true,
          "internalType": "address",
          "name": "owner",
          "type": "address"
        },
        {
          "indexed": false,
          "internalType": "string",
          "name": "message",
          "type": "string"
        }
      ],
      "name": "RuleCreated",
      "type": "event"
    },
    {
      "anonymous": false,
      "inputs": [
        {
          "indexed": true,
          "internalType": "uint256",
          "name": "ruleId",
          "type": "uint256"
        },
        {
          "indexed": true,
          "internalType": "address",
          "name": "owner",
          "type": "address"
        }
      ],
      "name": "RuleDeactivated",
      "type": "event"
    },
    {
      "inputs": [
        {
          "internalType": "uint256",
          "name": "threshold",
          "type": "uint256"
        },
        {
          "internalType": "string",
          "name": "message",
          "type": "string"
        }
      ],
      "name": "createAmountAlert",
      "outputs": [
        {
          "internalType": "uint256",
          "name": "ruleId",
          "type": "uint256"
        }
      ],
      "stateMutability": "nonpayable",
      "type": "function"
    },
    {
      "inputs": [
        {
          "internalType": "address",
          "name": "watchedAddress",
          "type": "address"
        },
        {
          "internalType": "string",
          "name": "message",
          "type": "string"
        }
      ],
      "name": "createFromAddressAlert",
      "outputs": [
        {
          "internalType": "uint256",
          "name": "ruleId",
          "type": "uint256"
        }
      ],
      "stateMutability": "nonpayable",
      "type": "function"
    },
    {
      "inputs": [
        {
          "internalType": "address",
          "name": "watchedAddress",
          "type": "address"
        },
        {
          "internalType": "string",
          "name": "message",
          "type": "string"
        }
      ],
      "name": "createToAddressAlert",
      "outputs": [
        {
          "internalType": "uint256",
          "name": "ruleId",
          "type": "uint256"
        }
      ],
      "stateMutability": "nonpayable",
      "type": "function"
    },
    {
      "inputs": [
        {
          "internalType": "uint256",
          "name": "ruleId",
          "type": "uint256"
        }
      ],
      "name": "deactivateRule",
      "outputs": [],
      "stateMutability": "nonpayable",
      "type": "function"
    },
    {
      "inputs": [
        {
          "internalType": "uint256",
          "name": "ruleId",
          "type": "uint256"
        }
      ],
      "name": "getRule",
      "outputs": [
        {
          "components": [
            {
              "internalType": "uint256",
              "name": "id",
              "type": "uint256"
            },
            {
              "internalType": "address",
              "name": "owner",
              "type": "address"
            },
            {
              "internalType": "enum AlertEngine.ConditionType",
              "name": "condition",
              "type": "uint8"
            },
            {
              "internalType": "uint256",
              "name": "amountThreshold",
              "type": "uint256"
            },
            {
              "internalType": "address",
              "name": "targetAddress",
              "type": "address"
            },
            {
              "internalType": "string",
              "name": "message",
              "type": "string"
            },
            {
              "internalType": "bool",
              "name": "isActive",
              "type": "bool"
            },
            {
              "internalType": "uint256",
              "name": "triggerCount",
              "type": "uint256"
            },
            {
              "internalType": "uint256",
              "name": "createdAt",
              "type": "uint256"
            }
          ],
          "internalType": "struct AlertEngine.AlertRule",
          "name": "",
          "type": "tuple"
        }
      ],
      "stateMutability": "view",
      "type": "function"
    },
    {
      "inputs": [
        {
          "internalType": "address",
          "name": "user",
          "type": "address"
        }
      ],
      "name": "getUserRuleIds",
      "outputs": [
        {
          "internalType": "uint256[]",
          "name": "",
          "type": "uint256[]"
        }
      ],
      "stateMutability": "view",
      "type": "function"
    },
    {
      "inputs": [
        {
          "internalType": "address",
          "name": "emitter",
          "type": "address"
        },
        {
          "internalType": "bytes32[]",
          "name": "eventTopics",
          "type": "bytes32[]"
        },
        {
          "internalType": "bytes",
          "name": "data",
          "type": "bytes"
        }
      ],
      "name": "onEvent",
      "outputs": [],
      "stateMutability": "nonpayable",
      "type": "function"
    },
    {
      "inputs": [],
      "name": "owner",
      "outputs": [
        {
          "internalType": "address",
          "name": "",
          "type": "address"
        }
      ],
      "stateMutability": "view",
      "type": "function"
    },
    {
      "inputs": [],
      "name": "renounceOwnership",
      "outputs": [],
      "stateMutability": "nonpayable",
      "type": "function"
    },
    {
      "inputs": [
        {
          "internalType": "uint256",
          "name": "",
          "type": "uint256"
        }
      ],
      "name": "rules",
      "outputs": [
        {
          "internalType": "uint256",
          "name": "id",
          "type": "uint256"
        },
        {
          "internalType": "address",
          "name": "owner",
          "type": "address"
        },
        {
          "internalType": "enum AlertEngine.ConditionType",
          "name": "condition",
          "type": "uint8"
        },
        {
          "internalType": "uint256",
          "name": "amountThreshold",
          "type": "uint256"
        },
        {
          "internalType": "address",
          "name": "targetAddress",
          "type": "address"
        },
        {
          "internalType": "string",
          "name": "message",
          "type": "string"
        },
        {
          "internalType": "bool",
          "name": "isActive",
          "type": "bool"
        },
        {
          "internalType": "uint256",
          "name": "triggerCount",
          "type": "uint256"
        },
        {
          "internalType": "uint256",
          "name": "createdAt",
          "type": "uint256"
        }
      ],
      "stateMutability": "view",
      "type": "function"
    },
    {
      "inputs": [
        {
          "internalType": "bytes4",
          "name": "interfaceId",
          "type": "bytes4"
        }
      ],
      "name": "supportsInterface",
      "outputs": [
        {
          "internalType": "bool",
          "name": "",
          "type": "bool"
        }
      ],
      "stateMutability": "pure",
      "type": "function"
    },
    {
      "inputs": [],
      "name": "totalAlertsEmitted",
      "outputs": [
        {
          "internalType": "uint256",
          "name": "",
          "type": "uint256"
        }
      ],
      "stateMutability": "view",
      "type": "function"
    },
    {
      "inputs": [],
      "name": "totalRulesCreated",
      "outputs": [
        {
          "internalType": "uint256",
          "name": "",
          "type": "uint256"
        }
      ],
      "stateMutability": "view",
      "type": "function"
    },
    {
      "inputs": [
        {
          "internalType": "address",
          "name": "newOwner",
          "type": "address"
        }
      ],
      "name": "transferOwnership",
      "outputs": [],
      "stateMutability": "nonpayable",
      "type": "function"
    },
    {
      "inputs": [
        {
          "internalType": "address",
          "name": "",
          "type": "address"
        },
        {
          "internalType": "uint256",
          "name": "",
          "type": "uint256"
        }
      ],
      "name": "userRules",
      "outputs": [
        {
          "internalType": "uint256",
          "name": "",
          "type": "uint256"
        }
      ],
      "stateMutability": "view",
      "type": "function"
    }
  ],
  "bytecode": "0x6080604052600180553480156012575f5ffd5b503380603757604051631e4fbdf760e01b81525f600482015260240160405180910390fd5b603e816043565b506092565b5f80546001600160a01b038381166001600160a01b0319831681178455604051919092169283917f8be0079c531659141344cd1fd0a4f28419497f9722a3daafe3b4186f6b6457e09190a35050565b6112a88061009f5f395ff3fe608060405234801561000f575f5ffd5b50600436106100ef575f3560e01c8063715018a611610093578063d9d907f611610063578063d9d907f614610214578063e7fd03b514610227578063f2fde38b14610230578063f4c3ac8a14610243575f5ffd5b8063715018a6146101cc5780638baaf15b146101d45780638da5cb5b146101e7578063c361942c14610201575f5ffd5b80633a758ccc116100ce5780633a758ccc1461016457806348462037146101795780635180b1d01461019957806353edf33d146101b9575f5ffd5b8062cb8264146100f357806301ffc9a71461011957806304d6ded41461013c575b5f5ffd5b610106610101366004610caf565b61024c565b6040519081526020015b60405180910390f35b61012c610127366004610cfe565b610298565b6040519015158152602001610110565b61014f61014a366004610d2c565b6102ce565b60405161011099989796959493929190610da5565b610177610172366004610d2c565b6103b6565b005b61018c610187366004610d2c565b6104a6565b6040516101109190610e11565b6101ac6101a7366004610ec2565b61062c565b6040516101109190610edb565b6101776101c7366004610f1d565b610695565b6101776106cb565b6101066101e2366004610fcf565b6106de565b5f546040516001600160a01b039091168152602001610110565b61010661020f366004610ff7565b610709565b610106610222366004610caf565b61074c565b61010660045481565b61017761023e366004610ec2565b610790565b61010660055481565b5f6102903360025f8787878080601f0160208091040260200160405190810160405280939291908181526020018383808284375f920191909152506107cd92505050565b949350505050565b5f6301ffc9a760e01b6001600160e01b0319831614806102c857506353edf33d60e01b6001600160e01b03198316145b92915050565b600260208190525f91825260409091208054600182015492820154600383015460048401805493956001600160a01b0380821696600160a01b90920460ff169593169290919061031d90611026565b80601f016020809104026020016040519081016040528092919081815260200182805461034990611026565b80156103945780601f1061036b57610100808354040283529160200191610394565b820191905f5260205f20905b81548152906001019060200180831161037757829003601f168201915b5050505060058301546006840154600790940154929360ff9091169290915089565b5f81815260026020526040902060018101546001600160a01b0316331461041d5760405162461bcd60e51b815260206004820152601660248201527542756b616e2070656d696c696b2072756c6520696e6960501b60448201526064015b60405180910390fd5b600581015460ff1661046a5760405162461bcd60e51b8152602060048201526016602482015275293ab6329039bab230b4103a34b230b59030b5ba34b360511b6044820152606401610414565b60058101805460ff19169055604051339083907ff1fb8e30454f7590fccf3e61d916cc823b07da33d3bcfbd9c2e71e61b0393a3a905f90a35050565b6040805161012080820183525f808352602080840182905283850182905260608085018390526080850183905260a085015260c0840182905260e0840182905261010084018290528582526002815290849020845192830185528054835260018101546001600160a01b038116928401929092529293919291830190600160a01b900460ff16600481111561053d5761053d610d43565b600481111561054e5761054e610d43565b81526002820154602082015260038201546001600160a01b0316604082015260048201805460609092019161058290611026565b80601f01602080910402602001604051908101604052809291908181526020018280546105ae90611026565b80156105f95780601f106105d0576101008083540402835291602001916105f9565b820191905f5260205f20905b8154815290600101906020018083116105dc57829003601f168201915b5050509183525050600582015460ff16151560208201526006820154604082015260079091015460609091015292915050565b6001600160a01b0381165f9081526003602090815260409182902080548351818402810184019094528084526060939283018282801561068957602002820191905f5260205f20905b815481526020019060010190808311610675575b50505050509050919050565b33610100146106b75760405163191fbb7560e01b815260040160405180910390fd5b6106c485858585856109ab565b5050505050565b6106d3610bd4565b6106dc5f610c00565b565b6003602052815f5260405f2081815481106106f7575f80fd5b905f5260205f20015f91509150505481565b5f610290335f865f87878080601f0160208091040260200160405190810160405280939291908181526020018383808284375f920191909152506107cd92505050565b5f6102903360035f8787878080601f0160208091040260200160405190810160405280939291908181526020018383808284375f920191909152506107cd92505050565b610798610bd4565b6001600160a01b0381166107c157604051631e4fbdf760e01b81525f6004820152602401610414565b6107ca81610c00565b50565b600180545f91826107dd8361105e565b919050559050604051806101200160405280828152602001876001600160a01b0316815260200186600481111561081657610816610d43565b815260208082018790526001600160a01b03808716604080850191909152606084018790526001608085018190525f60a086018190524260c090960195909552868552600284529381902085518155928501519383018054949092166001600160a01b03198516811783559085015192936001600160a81b03191617600160a01b8360048111156108a9576108a9610d43565b02179055506060820151600282015560808201516003820180546001600160a01b0319166001600160a01b0390921691909117905560a082015160048201906108f290826110df565b5060c082015160058201805460ff191691151591909117905560e08201516006820155610100909101516007909101556001600160a01b0386165f9081526003602090815260408220805460018101825590835290822001829055600480549161095b8361105e565b9190505550856001600160a01b0316817f8058f41ca4e96672ee98a86eb186b2cc5882eabb156ded29ef5d570587fc07f48460405161099a919061119a565b60405180910390a395945050505050565b5f848460018181106109bf576109bf6111ac565b905060200201355f1c90505f858560028181106109de576109de6111ac565b602002919091013591505f90506109f784860186610d2c565b905060015b600154811015610bc9575f818152600260205260409020600581015460ff16610a255750610bc1565b5f806001830154600160a01b900460ff166004811115610a4757610a47610d43565b03610a59575060028101548311610b37565b600180830154600160a01b900460ff166004811115610a7a57610a7a610d43565b03610a8c575060028101548310610b37565b60026001830154600160a01b900460ff166004811115610aae57610aae610d43565b03610acc575060038101546001600160a01b03868116911614610b37565b60036001830154600160a01b900460ff166004811115610aee57610aee610d43565b03610b0c575060038101546001600160a01b03858116911614610b37565b60046001830154600160a01b900460ff166004811115610b2e57610b2e610d43565b03610b37575060015b8015610bbe57600682018054905f610b4e8361105e565b909155505060058054905f610b628361105e565b9091555050600182015482546040516001600160a01b03909216917f927b03a00752091b83795ff96f8ddbf820e1dbf4c5c813658635ebe2126fe08090610bb5908a908a908a9060048a019042906111c0565b60405180910390a35b50505b6001016109fc565b505050505050505050565b5f546001600160a01b031633146106dc5760405163118cdaa760e01b8152336004820152602401610414565b5f80546001600160a01b038381166001600160a01b0319831681178455604051919092169283917f8be0079c531659141344cd1fd0a4f28419497f9722a3daafe3b4186f6b6457e09190a35050565b80356001600160a01b0381168114610c65575f5ffd5b919050565b5f5f83601f840112610c7a575f5ffd5b50813567ffffffffffffffff811115610c91575f5ffd5b602083019150836020828501011115610ca8575f5ffd5b9250929050565b5f5f5f60408486031215610cc1575f5ffd5b610cca84610c4f565b9250602084013567ffffffffffffffff811115610ce5575f5ffd5b610cf186828701610c6a565b9497909650939450505050565b5f60208284031215610d0e575f5ffd5b81356001600160e01b031981168114610d25575f5ffd5b9392505050565b5f60208284031215610d3c575f5ffd5b5035919050565b634e487b7160e01b5f52602160045260245ffd5b60058110610d7357634e487b7160e01b5f52602160045260245ffd5b9052565b5f81518084528060208401602086015e5f602082860101526020601f19601f83011685010191505092915050565b8981526001600160a01b0389166020820152610dc46040820189610d57565b86606082015260018060a01b038616608082015261012060a08201525f610def610120830187610d77565b94151560c08301525060e0810192909252610100909101529695505050505050565b60208152815160208201525f6020830151610e3760408401826001600160a01b03169052565b506040830151610e4a6060840182610d57565b50606083015160808301526080830151610e6f60a08401826001600160a01b03169052565b5060a083015161012060c0840152610e8b610140840182610d77565b905060c0840151610ea060e085018215159052565b5060e08401516101008401526101008401516101208401528091505092915050565b5f60208284031215610ed2575f5ffd5b610d2582610c4f565b602080825282518282018190525f918401906040840190835b81811015610f12578351835260209384019390920191600101610ef4565b509095945050505050565b5f5f5f5f5f60608688031215610f31575f5ffd5b610f3a86610c4f565b9450602086013567ffffffffffffffff811115610f55575f5ffd5b8601601f81018813610f65575f5ffd5b803567ffffffffffffffff811115610f7b575f5ffd5b8860208260051b8401011115610f8f575f5ffd5b60209190910194509250604086013567ffffffffffffffff811115610fb2575f5ffd5b610fbe88828901610c6a565b969995985093965092949392505050565b5f5f60408385031215610fe0575f5ffd5b610fe983610c4f565b946020939093013593505050565b5f5f5f60408486031215611009575f5ffd5b83359250602084013567ffffffffffffffff811115610ce5575f5ffd5b600181811c9082168061103a57607f821691505b60208210810361105857634e487b7160e01b5f52602260045260245ffd5b50919050565b5f6001820161107b57634e487b7160e01b5f52601160045260245ffd5b5060010190565b634e487b7160e01b5f52604160045260245ffd5b601f8211156110da57805f5260205f20601f840160051c810160208510156110bb5750805b601f840160051c820191505b818110156106c4575f81556001016110c7565b505050565b815167ffffffffffffffff8111156110f9576110f9611082565b61110d816111078454611026565b84611096565b6020601f82116001811461113f575f83156111285750848201515b5f19600385901b1c1916600184901b1784556106c4565b5f84815260208120601f198516915b8281101561116e578785015182556020948501946001909201910161114e565b508482101561118b57868401515f19600387901b60f8161c191681555b50505050600190811b01905550565b602081525f610d256020830184610d77565b634e487b7160e01b5f52603260045260245ffd5b6001600160a01b038681168252851660208201526040810184905260a0606082015282545f9081906111f181611026565b8060a0860152600182165f811461120f576001811461122b5761125c565b60ff19831660c087015260c082151560051b870101935061125c565b875f5260205f205f5b8381101561125357815488820160c00152600190910190602001611234565b870160c0019450505b505050608092909201929092529594505050505056fea2646970667358221220e963be60ba73e7800ea2bb4dc08278dab2a4af4143db72ddc2e71599d7dc1c8464736f6c634300081e0033",
  "linkReferences": {},
  "deployedLinkReferences": {}
}