{
  "_format": "hh-sol-artifact-1",
  "contractName": "EventAggregator",
  "sourceName": "src/EventAggregator.sol",
  "abi": [
    {
      "inputs": [],
      "stateMutability": "nonpayable",
      "type": "constructor"
    },
    {
      "inputs": [],
      "name": "OnlyReactivityPrecompile",
      "type": "error"
    },
    {
      "inputs": [
        {
          "internalType": "address",
          "name": "owner",
          "type": "address"
        }
      ],
      "name": "OwnableInvalidOwner",
      "type": "error"
    },
    {
      "inputs": [
        {
          "internalType": "address",
          "name": "account",
          "type": "address"
        }
      ],
      "name": "OwnableUnauthorizedAccount",
      "type": "error"
    },
    {
      "anonymous": false,
      "inputs": [
        {
          "indexed": true,
          "internalType": "address",
          "name": "sender",
          "type": "address"
        },
        {
          "indexed": false,
          "internalType": "uint256",
          "name": "amount",
          "type": "uint256"
        },
        {
          "indexed": false,
          "internalType": "uint256",
          "name": "timestamp",
          "type": "uint256"
        }
      ],
      "name": "NewLargestTransaction",
      "type": "event"
    },
    {
      "anonymous": false,
      "inputs": [
        {
          "indexed": true,
          "internalType": "address",
          "name": "previousOwner",
          "type": "address"
        },
        {
          "indexed": true,
          "internalType": "address",
          "name": "newOwner",
          "type": "address"
        }
      ],
      "name": "OwnershipTransferred",
      "type": "event"
    },
    {
      "anonymous": false,
      "inputs": [
        {
          "indexed": false,
          "internalType": "uint256",
          "name": "totalTransactions",
          "type": "uint256"
        },
        {
          "indexed": false,
          "internalType": "uint256",
          "name": "totalVolumeWei",
          "type": "uint256"
        },
        {
          "indexed": false,
          "internalType": "uint256",
          "name": "uniqueAddressCount",
          "type": "uint256"
        },
        {
          "indexed": false,
          "internalType": "uint256",
          "name": "timestamp",
          "type": "uint256"
        }
      ],
      "name": "StatsUpdated",
      "type": "event"
    },
    {
      "inputs": [
        {
          "internalType": "address",
          "name": "",
          "type": "address"
        }
      ],
      "name": "addressTxCount",
      "outputs": [
        {
          "internalType": "uint256",
          "name": "",
          "type": "uint256"
        }
      ],
      "stateMutability": "view",
      "type": "function"
    },
    {
      "inputs": [
        {
          "internalType": "address",
          "name": "",
          "type": "address"
        }
      ],
      "name": "addressVolume",
      "outputs": [
        {
          "internalType": "uint256",
          "name": "",
          "type": "uint256"
        }
      ],
      "stateMutability": "view",
      "type": "function"
    },
    {
      "inputs": [
        {
          "internalType": "uint256",
          "name": "",
          "type": "uint256"
        }
      ],
      "name": "dailyTxCount",
      "outputs": [
        {
          "internalType": "uint256",
          "name": "",
          "type": "uint256"
        }
      ],
      "stateMutability": "view",
      "type": "function"
    },
    {
      "inputs": [
        {
          "internalType": "uint256",
          "name": "",
          "type": "uint256"
        }
      ],
      "name": "dailyVolume",
      "outputs": [
        {
          "internalType": "uint256",
          "name": "",
          "type": "uint256"
        }
      ],
      "stateMutability": "view",
      "type": "function"
    },
    {
      "inputs": [],
      "name": "deployedAt",
      "outputs": [
        {
          "internalType": "uint256",
          "name": "",
          "type": "uint256"
        }
      ],
      "stateMutability": "view",
      "type": "function"
    },
    {
      "inputs": [
        {
          "internalType": "uint256",
          "name": "numDays",
          "type": "uint256"
        }
      ],
      "name": "getRecentDailyStats",
      "outputs": [
        {
          "internalType": "uint256[]",
          "name": "txCounts",
          "type": "uint256[]"
        },
        {
          "internalType": "uint256[]",
          "name": "volumes",
          "type": "uint256[]"
        }
      ],
      "stateMutability": "view",
      "type": "function"
    },
    {
      "inputs": [],
      "name": "getTodayStats",
      "outputs": [
        {
          "internalType": "uint256",
          "name": "txCount",
          "type": "uint256"
        },
        {
          "internalType": "uint256",
          "name": "volume",
          "type": "uint256"
        }
      ],
      "stateMutability": "view",
      "type": "function"
    },
    {
      "inputs": [],
      "name": "getTopAddresses",
      "outputs": [
        {
          "internalType": "address[10]",
          "name": "",
          "type": "address[10]"
        }
      ],
      "stateMutability": "view",
      "type": "function"
    },
    {
      "inputs": [],
      "name": "getTotalVolumeSTT",
      "outputs": [
        {
          "internalType": "uint256",
          "name": "",
          "type": "uint256"
        }
      ],
      "stateMutability": "view",
      "type": "function"
    },
    {
      "inputs": [
        {
          "internalType": "address",
          "name": "",
          "type": "address"
        }
      ],
      "name": "isKnownAddress",
      "outputs": [
        {
          "internalType": "bool",
          "name": "",
          "type": "bool"
        }
      ],
      "stateMutability": "view",
      "type": "function"
    },
    {
      "inputs": [],
      "name": "largestTransactionEver",
      "outputs": [
        {
          "internalType": "uint256",
          "name": "",
          "type": "uint256"
        }
      ],
      "stateMutability": "view",
      "type": "function"
    },
    {
      "inputs": [],
      "name": "largestTxSender",
      "outputs": [
        {
          "internalType": "address",
          "name": "",
          "type": "address"
        }
      ],
      "stateMutability": "view",
      "type": "function"
    },
    {
      "inputs": [
        {
          "internalType": "address",
          "name": "emitter",
          "type": "address"
        },
        {
          "internalType": "bytes32[]",
          "name": "eventTopics",
          "type": "bytes32[]"
        },
        {
          "internalType": "bytes",
          "name": "data",
          "type": "bytes"
        }
      ],
      "name": "onEvent",
      "outputs": [],
      "stateMutability": "nonpayable",
      "type": "function"
    },
    {
      "inputs": [],
      "name": "owner",
      "outputs": [
        {
          "internalType": "address",
          "name": "",
          "type": "address"
        }
      ],
      "stateMutability": "view",
      "type": "function"
    },
    {
      "inputs": [],
      "name": "renounceOwnership",
      "outputs": [],
      "stateMutability": "nonpayable",
      "type": "function"
    },
    {
      "inputs": [
        {
          "internalType": "bytes4",
          "name": "interfaceId",
          "type": "bytes4"
        }
      ],
      "name": "supportsInterface",
      "outputs": [
        {
          "internalType": "bool",
          "name": "",
          "type": "bool"
        }
      ],
      "stateMutability": "pure",
      "type": "function"
    },
    {
      "inputs": [
        {
          "internalType": "uint256",
          "name": "",
          "type": "uint256"
        }
      ],
      "name": "topAddresses",
      "outputs": [
        {
          "internalType": "address",
          "name": "",
          "type": "address"
        }
      ],
      "stateMutability": "view",
      "type": "function"
    },
    {
      "inputs": [],
      "name": "totalTransactions",
      "outputs": [
        {
          "internalType": "uint256",
          "name": "",
          "type": "uint256"
        }
      ],
      "stateMutability": "view",
      "type": "function"
    },
    {
      "inputs": [],
      "name": "totalVolumeWei",
      "outputs": [
        {
          "internalType": "uint256",
          "name": "",
          "type": "uint256"
        }
      ],
      "stateMutability": "view",
      "type": "function"
    },
    {
      "inputs": [
        {
          "internalType": "address",
          "name": "newOwner",
          "type": "address"
        }
      ],
      "name": "transferOwnership",
      "outputs": [],
      "stateMutability": "nonpayable",
      "type": "function"
    },
    {
      "inputs": [],
      "name": "uniqueAddressCount",
      "outputs": [
        {
          "internalType": "uint256",
          "name": "",
          "type": "uint256"
        }
      ],
      "stateMutability": "view",
      "type": "function"
    }
  ],
  "bytecode": "0x60a0604052348015600e575f5ffd5b503380603357604051631e4fbdf760e01b81525f600482015260240160405180910390fd5b603a816043565b50426080526092565b5f80546001600160a01b038381166001600160a01b0319831681178455604051919092169283917f8be0079c531659141344cd1fd0a4f28419497f9722a3daafe3b4186f6b6457e09190a35050565b608051610d256100aa5f395f6102e60152610d255ff3fe608060405234801561000f575f5ffd5b5060043610610132575f3560e01c80638da5cb5b116100b4578063bd14b49911610079578063bd14b49914610298578063d4839c75146102a1578063d5970396146102c0578063eae4c19f146102e1578063f12cd04e14610308578063f2fde38b1461031b575f5ffd5b80638da5cb5b1461024f578063943ca3b91461025f57806395b9be331461027e578063b3c2222c14610287578063b9a600381461028f575f5ffd5b806325c7e8e5116100fa57806325c7e8e5146101e95780634c71e640146101fe57806353edf33d146102295780636e4f93571461023e578063715018a614610247575f5ffd5b806301ffc9a7146101365780630450f58f1461015e578063061d4d841461017b57806321c965de146101a85780632248156e146101ca575b5f5ffd5b610149610144366004610a30565b61032e565b60405190151581526020015b60405180910390f35b610166610364565b60408051928352602083019190915201610155565b61019a610189366004610a5e565b60066020525f908152604090205481565b604051908152602001610155565b6101496101b6366004610a90565b600a6020525f908152604090205460ff1681565b61019a6101d8366004610a90565b60096020525f908152604090205481565b6101f1610398565b6040516101559190610aa9565b600554610211906001600160a01b031681565b6040516001600160a01b039091168152602001610155565b61023c610237366004610b28565b6103de565b005b61019a60045481565b61023c610414565b5f546001600160a01b0316610211565b61019a61026d366004610a5e565b60076020525f908152604090205481565b61019a60035481565b61019a610427565b61019a60015481565b61019a60025481565b61019a6102af366004610a90565b60086020525f908152604090205481565b6102d36102ce366004610a5e565b610443565b604051610155929190610c14565b61019a7f000000000000000000000000000000000000000000000000000000000000000081565b610211610316366004610a5e565b6105af565b61023c610329366004610a90565b6105ce565b5f6301ffc9a760e01b6001600160e01b03198316148061035e57506353edf33d60e01b6001600160e01b03198316145b92915050565b5f80806103746201518042610c55565b5f908152600660209081526040808320546007909252909120549094909350915050565b6103a0610a11565b6040805161014081019182905290600b90600a9082845b81546001600160a01b031681526001909101906020018083116103b7575050505050905090565b33610100146104005760405163191fbb7560e01b815260040160405180910390fd5b61040d858585858561060b565b5050505050565b61041c610825565b6104255f610851565b565b5f670de0b6b3a764000060025461043e9190610c55565b905090565b606080601e83111561048f5760405162461bcd60e51b815260206004820152601060248201526f4d616b73696d756d203330206861726960801b60448201526064015b60405180910390fd5b5f61049d6201518042610c55565b90508367ffffffffffffffff8111156104b8576104b8610c74565b6040519080825280602002602001820160405280156104e1578160200160208202803683370190505b5092508367ffffffffffffffff8111156104fd576104fd610c74565b604051908082528060200260200182016040528015610526578160200160208202803683370190505b5091505f5b848110156105a8575f61053e8284610c88565b905060065f8281526020019081526020015f205485838151811061056457610564610c9b565b60200260200101818152505060075f8281526020019081526020015f205484838151811061059457610594610c9b565b60209081029190910101525060010161052b565b5050915091565b600b81600a81106105be575f80fd5b01546001600160a01b0316905081565b6105d6610825565b6001600160a01b0381166105ff57604051631e4fbdf760e01b81525f6004820152602401610486565b61060881610851565b50565b5f8484600181811061061f5761061f610c9b565b602002919091013591505f905061063883850185610a5e565b600180549192505f61064983610caf565b91905055508060025f82825461065f9190610cc7565b909155505f90506106736201518042610c55565b5f81815260066020526040812080549293509061068f83610caf565b90915550505f81815260076020526040812080548492906106b1908490610cc7565b90915550506001600160a01b0383165f908152600a602052604090205460ff1661070b576001600160a01b0383165f908152600a60205260408120805460ff19166001179055600380549161070583610caf565b91905055505b6001600160a01b0383165f90815260086020526040812080549161072e83610caf565b90915550506001600160a01b0383165f908152600960205260408120805484929061075a908490610cc7565b90915550506004548211156107c5576004829055600580546001600160a01b0319166001600160a01b038516908117909155604080518481524260208201527f8b43064b6b9c8fa71f6b8765934dba64974d0af7c3c3ccee4c0e0747cfa8e8f4910160405180910390a25b6107ce836108a0565b60015460025460035460408051938452602084019290925282820152426060830152517fdf601dc9cab1949db7d829ded79c76070375083f98d23c3e5de99ff9fdab542a9181900360800190a15050505050505050565b5f546001600160a01b031633146104255760405163118cdaa760e01b8152336004820152602401610486565b5f80546001600160a01b038381166001600160a01b0319831681178455604051919092169283917f8be0079c531659141344cd1fd0a4f28419497f9722a3daafe3b4186f6b6457e09190a35050565b6001600160a01b0381165f90815260086020526040812054905b600a811015610a0c57826001600160a01b0316600b82600a81106108e0576108e0610c9b565b01546001600160a01b0316036108f557505050565b5f600b82600a811061090957610909610c9b565b01546001600160a01b0316148061094f57508160085f600b84600a811061093257610932610c9b565b01546001600160a01b0316815260208101919091526040015f2054105b15610a045760095b818111156109cb57600b61096c600183610c88565b600a811061097c5761097c610c9b565b01546001600160a01b0316600b82600a811061099a5761099a610c9b565b0180546001600160a01b0319166001600160a01b0392909216919091179055806109c381610cda565b915050610957565b5082600b82600a81106109e0576109e0610c9b565b0180546001600160a01b0319166001600160a01b0392909216919091179055505050565b6001016108ba565b505050565b604051806101400160405280600a906020820280368337509192915050565b5f60208284031215610a40575f5ffd5b81356001600160e01b031981168114610a57575f5ffd5b9392505050565b5f60208284031215610a6e575f5ffd5b5035919050565b80356001600160a01b0381168114610a8b575f5ffd5b919050565b5f60208284031215610aa0575f5ffd5b610a5782610a75565b610140810181835f5b600a811015610ada5781516001600160a01b0316835260209283019290910190600101610ab2565b50505092915050565b5f5f83601f840112610af3575f5ffd5b50813567ffffffffffffffff811115610b0a575f5ffd5b602083019150836020828501011115610b21575f5ffd5b9250929050565b5f5f5f5f5f60608688031215610b3c575f5ffd5b610b4586610a75565b9450602086013567ffffffffffffffff811115610b60575f5ffd5b8601601f81018813610b70575f5ffd5b803567ffffffffffffffff811115610b86575f5ffd5b8860208260051b8401011115610b9a575f5ffd5b60209190910194509250604086013567ffffffffffffffff811115610bbd575f5ffd5b610bc988828901610ae3565b969995985093965092949392505050565b5f8151808452602084019350602083015f5b82811015610c0a578151865260209586019590910190600101610bec565b5093949350505050565b604081525f610c266040830185610bda565b8281036020840152610c388185610bda565b95945050505050565b634e487b7160e01b5f52601160045260245ffd5b5f82610c6f57634e487b7160e01b5f52601260045260245ffd5b500490565b634e487b7160e01b5f52604160045260245ffd5b8181038181111561035e5761035e610c41565b634e487b7160e01b5f52603260045260245ffd5b5f60018201610cc057610cc0610c41565b5060010190565b8082018082111561035e5761035e610c41565b5f81610ce857610ce8610c41565b505f19019056fea26469706673582212207390243c78c93c9ac29c4e34d32c46100f79bd570515c466c098b2ab09c5bc0864736f6c634300081e0033",
  "linkReferences": {},
  "deployedLinkReferences": {}
}