{"src/EventAggregator.sol":{"EventAggregator":{"abi":[{"inputs":[],"stateMutability":"nonpayable","type":"constructor"},{"inputs":[],"name":"OnlyReactivityPrecompile","type":"error"},{"inputs":[{"internalType":"address","name":"owner","type":"address"}],"name":"OwnableInvalidOwner","type":"error"},{"inputs":[{"internalType":"address","name":"account","type":"address"}],"name":"OwnableUnauthorizedAccount","type":"error"},{"anonymous":false,"inputs":[{"indexed":true,"internalType":"address","name":"sender","type":"address"},{"indexed":false,"internalType":"uint256","name":"amount","type":"uint256"},{"indexed":false,"internalType":"uint256","name":"timestamp","type":"uint256"}],"name":"NewLargestTransaction","type":"event"},{"anonymous":false,"inputs":[{"indexed":true,"internalType":"address","name":"previousOwner","type":"address"},{"indexed":true,"internalType":"address","name":"newOwner","type":"address"}],"name":"OwnershipTransferred","type":"event"},{"anonymous":false,"inputs":[{"indexed":false,"internalType":"uint256","name":"totalTransactions","type":"uint256"},{"indexed":false,"internalType":"uint256","name":"totalVolumeWei","type":"uint256"},{"indexed":false,"internalType":"uint256","name":"uniqueAddressCount","type":"uint256"},{"indexed":false,"internalType":"uint256","name":"timestamp","type":"uint256"}],"name":"StatsUpdated","type":"event"},{"inputs":[{"internalType":"address","name":"","type":"address"}],"name":"addressTxCount","outputs":[{"internalType":"uint256","name":"","type":"uint256"}],"stateMutability":"view","type":"function"},{"inputs":[{"internalType":"address","name":"","type":"address"}],"name":"addressVolume","outputs":[{"internalType":"uint256","name":"","type":"uint256"}],"stateMutability":"view","type":"function"},{"inputs":[{"internalType":"uint256","name":"","type":"uint256"}],"name":"dailyTxCount","outputs":[{"internalType":"uint256","name":"","type":"uint256"}],"stateMutability":"view","type":"function"},{"inputs":[{"internalType":"uint256","name":"","type":"uint256"}],"name":"dailyVolume","outputs":[{"internalType":"uint256","name":"","type":"uint256"}],"stateMutability":"view","type":"function"},{"inputs":[],"name":"deployedAt","outputs":[{"internalType":"uint256","name":"","type":"uint256"}],"stateMutability":"view","type":"function"},{"inputs":[{"internalType":"uint256","name":"numDays","type":"uint256"}],"name":"getRecentDailyStats","outputs":[{"internalType":"uint256[]","name":"txCounts","type":"uint256[]"},{"internalType":"uint256[]","name":"volumes","type":"uint256[]"}],"stateMutability":"view","type":"function"},{"inputs":[],"name":"getTodayStats","outputs":[{"internalType":"uint256","name":"txCount","type":"uint256"},{"internalType":"uint256","name":"volume","type":"uint256"}],"stateMutability":"view","type":"function"},{"inputs":[],"name":"getTopAddresses","outputs":[{"internalType":"address[10]","name":"","type":"address[10]"}],"stateMutability":"view","type":"function"},{"inputs":[],"name":"getTotalVolumeSTT","outputs":[{"internalType":"uint256","name":"","type":"uint256"}],"stateMutability":"view","type":"function"},{"inputs":[{"internalType":"address","name":"","type":"address"}],"name":"isKnownAddress","outputs":[{"internalType":"bool","name":"","type":"bool"}],"stateMutability":"view","type":"function"},{"inputs":[],"name":"largestTransactionEver","outputs":[{"internalType":"uint256","name":"","type":"uint256"}],"stateMutability":"view","type":"function"},{"inputs":[],"name":"largestTxSender","outputs":[{"internalType":"address","name":"","type":"address"}],"stateMutability":"view","type":"function"},{"inputs":[{"internalType":"address","name":"emitter","type":"address"},{"internalType":"bytes32[]","name":"eventTopics","type":"bytes32[]"},{"internalType":"bytes","name":"data","type":"bytes"}],"name":"onEvent","outputs":[],"stateMutability":"nonpayable","type":"function"},{"inputs":[],"name":"owner","outputs":[{"internalType":"address","name":"","type":"address"}],"stateMutability":"view","type":"function"},{"inputs":[],"name":"renounceOwnership","outputs":[],"stateMutability":"nonpayable","type":"function"},{"inputs":[{"internalType":"bytes4","name":"interfaceId","type":"bytes4"}],"name":"supportsInterface","outputs":[{"internalType":"bool","name":"","type":"bool"}],"stateMutability":"pure","type":"function"},{"inputs":[{"internalType":"uint256","name":"","type":"uint256"}],"name":"topAddresses","outputs":[{"internalType":"address","name":"","type":"address"}],"stateMutability":"view","type":"function"},{"inputs":[],"name":"totalTransactions","outputs":[{"internalType":"uint256","name":"","type":"uint256"}],"stateMutability":"view","type":"function"},{"inputs":[],"name":"totalVolumeWei","outputs":[{"internalType":"uint256","name":"","type":"uint256"}],"stateMutability":"view","type":"function"},{"inputs":[{"internalType":"address","name":"newOwner","type":"address"}],"name":"transferOwnership","outputs":[],"stateMutability":"nonpayable","type":"function"},{"inputs":[],"name":"uniqueAddressCount","outputs":[{"internalType":"uint256","name":"","type":"uint256"}],"stateMutability":"view","type":"function"}],"evm":{"bytecode":{"linkReferences":{},"object":"60a0604052348015600e575f5ffd5b503380603357604051631e4fbdf760e01b81525f600482015260240160405180910390fd5b603a816043565b50426080526092565b5f80546001600160a01b038381166001600160a01b0319831681178455604051919092169283917f8be0079c531659141344cd1fd0a4f28419497f9722a3daafe3b4186f6b6457e09190a35050565b608051610d256100aa5f395f6102e60152610d255ff3fe608060405234801561000f575f5ffd5b5060043610610132575f3560e01c80638da5cb5b116100b4578063bd14b49911610079578063bd14b49914610298578063d4839c75146102a1578063d5970396146102c0578063eae4c19f146102e1578063f12cd04e14610308578063f2fde38b1461031b575f5ffd5b80638da5cb5b1461024f578063943ca3b91461025f57806395b9be331461027e578063b3c2222c14610287578063b9a600381461028f575f5ffd5b806325c7e8e5116100fa57806325c7e8e5146101e95780634c71e640146101fe57806353edf33d146102295780636e4f93571461023e578063715018a614610247575f5ffd5b806301ffc9a7146101365780630450f58f1461015e578063061d4d841461017b57806321c965de146101a85780632248156e146101ca575b5f5ffd5b610149610144366004610a30565b61032e565b60405190151581526020015b60405180910390f35b610166610364565b60408051928352602083019190915201610155565b61019a610189366004610a5e565b60066020525f908152604090205481565b604051908152602001610155565b6101496101b6366004610a90565b600a6020525f908152604090205460ff1681565b61019a6101d8366004610a90565b60096020525f908152604090205481565b6101f1610398565b6040516101559190610aa9565b600554610211906001600160a01b031681565b6040516001600160a01b039091168152602001610155565b61023c610237366004610b28565b6103de565b005b61019a60045481565b61023c610414565b5f546001600160a01b0316610211565b61019a61026d366004610a5e565b60076020525f908152604090205481565b61019a60035481565b61019a610427565b61019a60015481565b61019a60025481565b61019a6102af366004610a90565b60086020525f908152604090205481565b6102d36102ce366004610a5e565b610443565b604051610155929190610c14565b61019a7f000000000000000000000000000000000000000000000000000000000000000081565b610211610316366004610a5e565b6105af565b61023c610329366004610a90565b6105ce565b5f6301ffc9a760e01b6001600160e01b03198316148061035e57506353edf33d60e01b6001600160e01b03198316145b92915050565b5f80806103746201518042610c55565b5f908152600660209081526040808320546007909252909120549094909350915050565b6103a0610a11565b6040805161014081019182905290600b90600a9082845b81546001600160a01b031681526001909101906020018083116103b7575050505050905090565b33610100146104005760405163191fbb7560e01b815260040160405180910390fd5b61040d858585858561060b565b5050505050565b61041c610825565b6104255f610851565b565b5f670de0b6b3a764000060025461043e9190610c55565b905090565b606080601e83111561048f5760405162461bcd60e51b815260206004820152601060248201526f4d616b73696d756d203330206861726960801b60448201526064015b60405180910390fd5b5f61049d6201518042610c55565b90508367ffffffffffffffff8111156104b8576104b8610c74565b6040519080825280602002602001820160405280156104e1578160200160208202803683370190505b5092508367ffffffffffffffff8111156104fd576104fd610c74565b604051908082528060200260200182016040528015610526578160200160208202803683370190505b5091505f5b848110156105a8575f61053e8284610c88565b905060065f8281526020019081526020015f205485838151811061056457610564610c9b565b60200260200101818152505060075f8281526020019081526020015f205484838151811061059457610594610c9b565b60209081029190910101525060010161052b565b5050915091565b600b81600a81106105be575f80fd5b01546001600160a01b0316905081565b6105d6610825565b6001600160a01b0381166105ff57604051631e4fbdf760e01b81525f6004820152602401610486565b61060881610851565b50565b5f8484600181811061061f5761061f610c9b565b602002919091013591505f905061063883850185610a5e565b600180549192505f61064983610caf565b91905055508060025f82825461065f9190610cc7565b909155505f90506106736201518042610c55565b5f81815260066020526040812080549293509061068f83610caf565b90915550505f81815260076020526040812080548492906106b1908490610cc7565b90915550506001600160a01b0383165f908152600a602052604090205460ff1661070b576001600160a01b0383165f908152600a60205260408120805460ff19166001179055600380549161070583610caf565b91905055505b6001600160a01b0383165f90815260086020526040812080549161072e83610caf565b90915550506001600160a01b0383165f908152600960205260408120805484929061075a908490610cc7565b90915550506004548211156107c5576004829055600580546001600160a01b0319166001600160a01b038516908117909155604080518481524260208201527f8b43064b6b9c8fa71f6b8765934dba64974d0af7c3c3ccee4c0e0747cfa8e8f4910160405180910390a25b6107ce836108a0565b60015460025460035460408051938452602084019290925282820152426060830152517fdf601dc9cab1949db7d829ded79c76070375083f98d23c3e5de99ff9fdab542a9181900360800190a15050505050505050565b5f546001600160a01b031633146104255760405163118cdaa760e01b8152336004820152602401610486565b5f80546001600160a01b038381166001600160a01b0319831681178455604051919092169283917f8be0079c531659141344cd1fd0a4f28419497f9722a3daafe3b4186f6b6457e09190a35050565b6001600160a01b0381165f90815260086020526040812054905b600a811015610a0c57826001600160a01b0316600b82600a81106108e0576108e0610c9b565b01546001600160a01b0316036108f557505050565b5f600b82600a811061090957610909610c9b565b01546001600160a01b0316148061094f57508160085f600b84600a811061093257610932610c9b565b01546001600160a01b0316815260208101919091526040015f2054105b15610a045760095b818111156109cb57600b61096c600183610c88565b600a811061097c5761097c610c9b565b01546001600160a01b0316600b82600a811061099a5761099a610c9b565b0180546001600160a01b0319166001600160a01b0392909216919091179055806109c381610cda565b915050610957565b5082600b82600a81106109e0576109e0610c9b565b0180546001600160a01b0319166001600160a01b0392909216919091179055505050565b6001016108ba565b505050565b604051806101400160405280600a906020820280368337509192915050565b5f60208284031215610a40575f5ffd5b81356001600160e01b031981168114610a57575f5ffd5b9392505050565b5f60208284031215610a6e575f5ffd5b5035919050565b80356001600160a01b0381168114610a8b575f5ffd5b919050565b5f60208284031215610aa0575f5ffd5b610a5782610a75565b610140810181835f5b600a811015610ada5781516001600160a01b0316835260209283019290910190600101610ab2565b50505092915050565b5f5f83601f840112610af3575f5ffd5b50813567ffffffffffffffff811115610b0a575f5ffd5b602083019150836020828501011115610b21575f5ffd5b9250929050565b5f5f5f5f5f60608688031215610b3c575f5ffd5b610b4586610a75565b9450602086013567ffffffffffffffff811115610b60575f5ffd5b8601601f81018813610b70575f5ffd5b803567ffffffffffffffff811115610b86575f5ffd5b8860208260051b8401011115610b9a575f5ffd5b60209190910194509250604086013567ffffffffffffffff811115610bbd575f5ffd5b610bc988828901610ae3565b969995985093965092949392505050565b5f8151808452602084019350602083015f5b82811015610c0a578151865260209586019590910190600101610bec565b5093949350505050565b604081525f610c266040830185610bda565b8281036020840152610c388185610bda565b95945050505050565b634e487b7160e01b5f52601160045260245ffd5b5f82610c6f57634e487b7160e01b5f52601260045260245ffd5b500490565b634e487b7160e01b5f52604160045260245ffd5b8181038181111561035e5761035e610c41565b634e487b7160e01b5f52603260045260245ffd5b5f60018201610cc057610cc0610c41565b5060010190565b8082018082111561035e5761035e610c41565b5f81610ce857610ce8610c41565b505f19019056fea26469706673582212207390243c78c93c9ac29c4e34d32c46100f79bd570515c466c098b2ab09c5bc0864736f6c634300081e0033","opcodes":"PUSH1 0xA0 PUSH1 0x40 MSTORE CALLVALUE DUP1 ISZERO PUSH1 0xE JUMPI PUSH0 PUSH0 REVERT JUMPDEST POP CALLER DUP1 PUSH1 0x33 JUMPI PUSH1 0x40 MLOAD PUSH4 0x1E4FBDF7 PUSH1 0xE0 SHL DUP2 MSTORE PUSH0 PUSH1 0x4 DUP3 ADD MSTORE PUSH1 0x24 ADD PUSH1 0x40 MLOAD DUP1 SWAP2 SUB SWAP1 REVERT JUMPDEST PUSH1 0x3A DUP2 PUSH1 0x43 JUMP JUMPDEST POP TIMESTAMP PUSH1 0x80 MSTORE PUSH1 0x92 JUMP JUMPDEST PUSH0 DUP1 SLOAD PUSH1 0x1 PUSH1 0x1 PUSH1 0xA0 SHL SUB DUP4 DUP2 AND PUSH1 0x1 PUSH1 0x1 PUSH1 0xA0 SHL SUB NOT DUP4 AND DUP2 OR DUP5 SSTORE PUSH1 0x40 MLOAD SWAP2 SWAP1 SWAP3 AND SWAP3 DUP4 SWAP2 PUSH32 0x8BE0079C531659141344CD1FD0A4F28419497F9722A3DAAFE3B4186F6B6457E0 SWAP2 SWAP1 LOG3 POP POP JUMP JUMPDEST PUSH1 0x80 MLOAD PUSH2 0xD25 PUSH2 0xAA PUSH0 CODECOPY PUSH0 PUSH2 0x2E6 ADD MSTORE PUSH2 0xD25 PUSH0 RETURN INVALID PUSH1 0x80 PUSH1 0x40 MSTORE CALLVALUE DUP1 ISZERO PUSH2 0xF JUMPI PUSH0 PUSH0 REVERT JUMPDEST POP PUSH1 0x4 CALLDATASIZE LT PUSH2 0x132 JUMPI PUSH0 CALLDATALOAD PUSH1 0xE0 SHR DUP1 PUSH4 0x8DA5CB5B GT PUSH2 0xB4 JUMPI DUP1 PUSH4 0xBD14B499 GT PUSH2 0x79 JUMPI DUP1 PUSH4 0xBD14B499 EQ PUSH2 0x298 JUMPI DUP1 PUSH4 0xD4839C75 EQ PUSH2 0x2A1 JUMPI DUP1 PUSH4 0xD5970396 EQ PUSH2 0x2C0 JUMPI DUP1 PUSH4 0xEAE4C19F EQ PUSH2 0x2E1 JUMPI DUP1 PUSH4 0xF12CD04E EQ PUSH2 0x308 JUMPI DUP1 PUSH4 0xF2FDE38B EQ PUSH2 0x31B JUMPI PUSH0 PUSH0 REVERT JUMPDEST DUP1 PUSH4 0x8DA5CB5B EQ PUSH2 0x24F JUMPI DUP1 PUSH4 0x943CA3B9 EQ PUSH2 0x25F JUMPI DUP1 PUSH4 0x95B9BE33 EQ PUSH2 0x27E JUMPI DUP1 PUSH4 0xB3C2222C EQ PUSH2 0x287 JUMPI DUP1 PUSH4 0xB9A60038 EQ PUSH2 0x28F JUMPI PUSH0 PUSH0 REVERT JUMPDEST DUP1 PUSH4 0x25C7E8E5 GT PUSH2 0xFA JUMPI DUP1 PUSH4 0x25C7E8E5 EQ PUSH2 0x1E9 JUMPI DUP1 PUSH4 0x4C71E640 EQ PUSH2 0x1FE JUMPI DUP1 PUSH4 0x53EDF33D EQ PUSH2 0x229 JUMPI DUP1 PUSH4 0x6E4F9357 EQ PUSH2 0x23E JUMPI DUP1 PUSH4 0x715018A6 EQ PUSH2 0x247 JUMPI PUSH0 PUSH0 REVERT JUMPDEST DUP1 PUSH4 0x1FFC9A7 EQ PUSH2 0x136 JUMPI DUP1 PUSH4 0x450F58F EQ PUSH2 0x15E JUMPI DUP1 PUSH4 0x61D4D84 EQ PUSH2 0x17B JUMPI DUP1 PUSH4 0x21C965DE EQ PUSH2 0x1A8 JUMPI DUP1 PUSH4 0x2248156E EQ PUSH2 0x1CA JUMPI JUMPDEST PUSH0 PUSH0 REVERT JUMPDEST PUSH2 0x149 PUSH2 0x144 CALLDATASIZE PUSH1 0x4 PUSH2 0xA30 JUMP JUMPDEST PUSH2 0x32E JUMP JUMPDEST PUSH1 0x40 MLOAD SWAP1 ISZERO ISZERO DUP2 MSTORE PUSH1 0x20 ADD JUMPDEST PUSH1 0x40 MLOAD DUP1 SWAP2 SUB SWAP1 RETURN JUMPDEST PUSH2 0x166 PUSH2 0x364 JUMP JUMPDEST PUSH1 0x40 DUP1 MLOAD SWAP3 DUP4 MSTORE PUSH1 0x20 DUP4 ADD SWAP2 SWAP1 SWAP2 MSTORE ADD PUSH2 0x155 JUMP JUMPDEST PUSH2 0x19A PUSH2 0x189 CALLDATASIZE PUSH1 0x4 PUSH2 0xA5E JUMP JUMPDEST PUSH1 0x6 PUSH1 0x20 MSTORE PUSH0 SWAP1 DUP2 MSTORE PUSH1 0x40 SWAP1 KECCAK256 SLOAD DUP2 JUMP JUMPDEST PUSH1 0x40 MLOAD SWAP1 DUP2 MSTORE PUSH1 0x20 ADD PUSH2 0x155 JUMP JUMPDEST PUSH2 0x149 PUSH2 0x1B6 CALLDATASIZE PUSH1 0x4 PUSH2 0xA90 JUMP JUMPDEST PUSH1 0xA PUSH1 0x20 MSTORE PUSH0 SWAP1 DUP2 MSTORE PUSH1 0x40 SWAP1 KECCAK256 SLOAD PUSH1 0xFF AND DUP2 JUMP JUMPDEST PUSH2 0x19A PUSH2 0x1D8 CALLDATASIZE PUSH1 0x4 PUSH2 0xA90 JUMP JUMPDEST PUSH1 0x9 PUSH1 0x20 MSTORE PUSH0 SWAP1 DUP2 MSTORE PUSH1 0x40 SWAP1 KECCAK256 SLOAD DUP2 JUMP JUMPDEST PUSH2 0x1F1 PUSH2 0x398 JUMP JUMPDEST PUSH1 0x40 MLOAD PUSH2 0x155 SWAP2 SWAP1 PUSH2 0xAA9 JUMP JUMPDEST PUSH1 0x5 SLOAD PUSH2 0x211 SWAP1 PUSH1 0x1 PUSH1 0x1 PUSH1 0xA0 SHL SUB AND DUP2 JUMP JUMPDEST PUSH1 0x40 MLOAD PUSH1 0x1 PUSH1 0x1 PUSH1 0xA0 SHL SUB SWAP1 SWAP2 AND DUP2 MSTORE PUSH1 0x20 ADD PUSH2 0x155 JUMP JUMPDEST PUSH2 0x23C PUSH2 0x237 CALLDATASIZE PUSH1 0x4 PUSH2 0xB28 JUMP JUMPDEST PUSH2 0x3DE JUMP JUMPDEST STOP JUMPDEST PUSH2 0x19A PUSH1 0x4 SLOAD DUP2 JUMP JUMPDEST PUSH2 0x23C PUSH2 0x414 JUMP JUMPDEST PUSH0 SLOAD PUSH1 0x1 PUSH1 0x1 PUSH1 0xA0 SHL SUB AND PUSH2 0x211 JUMP JUMPDEST PUSH2 0x19A PUSH2 0x26D CALLDATASIZE PUSH1 0x4 PUSH2 0xA5E JUMP JUMPDEST PUSH1 0x7 PUSH1 0x20 MSTORE PUSH0 SWAP1 DUP2 MSTORE PUSH1 0x40 SWAP1 KECCAK256 SLOAD DUP2 JUMP JUMPDEST PUSH2 0x19A PUSH1 0x3 SLOAD DUP2 JUMP JUMPDEST PUSH2 0x19A PUSH2 0x427 JUMP JUMPDEST PUSH2 0x19A PUSH1 0x1 SLOAD DUP2 JUMP JUMPDEST PUSH2 0x19A PUSH1 0x2 SLOAD DUP2 JUMP JUMPDEST PUSH2 0x19A PUSH2 0x2AF CALLDATASIZE PUSH1 0x4 PUSH2 0xA90 JUMP JUMPDEST PUSH1 0x8 PUSH1 0x20 MSTORE PUSH0 SWAP1 DUP2 MSTORE PUSH1 0x40 SWAP1 KECCAK256 SLOAD DUP2 JUMP JUMPDEST PUSH2 0x2D3 PUSH2 0x2CE CALLDATASIZE PUSH1 0x4 PUSH2 0xA5E JUMP JUMPDEST PUSH2 0x443 JUMP JUMPDEST PUSH1 0x40 MLOAD PUSH2 0x155 SWAP3 SWAP2 SWAP1 PUSH2 0xC14 JUMP JUMPDEST PUSH2 0x19A PUSH32 0x0 DUP2 JUMP JUMPDEST PUSH2 0x211 PUSH2 0x316 CALLDATASIZE PUSH1 0x4 PUSH2 0xA5E JUMP JUMPDEST PUSH2 0x5AF JUMP JUMPDEST PUSH2 0x23C PUSH2 0x329 CALLDATASIZE PUSH1 0x4 PUSH2 0xA90 JUMP JUMPDEST PUSH2 0x5CE JUMP JUMPDEST PUSH0 PUSH4 0x1FFC9A7 PUSH1 0xE0 SHL PUSH1 0x1 PUSH1 0x1 PUSH1 0xE0 SHL SUB NOT DUP4 AND EQ DUP1 PUSH2 0x35E JUMPI POP PUSH4 0x53EDF33D PUSH1 0xE0 SHL PUSH1 0x1 PUSH1 0x1 PUSH1 0xE0 SHL SUB NOT DUP4 AND EQ JUMPDEST SWAP3 SWAP2 POP POP JUMP JUMPDEST PUSH0 DUP1 DUP1 PUSH2 0x374 PUSH3 0x15180 TIMESTAMP PUSH2 0xC55 JUMP JUMPDEST PUSH0 SWAP1 DUP2 MSTORE PUSH1 0x6 PUSH1 0x20 SWAP1 DUP2 MSTORE PUSH1 0x40 DUP1 DUP4 KECCAK256 SLOAD PUSH1 0x7 SWAP1 SWAP3 MSTORE SWAP1 SWAP2 KECCAK256 SLOAD SWAP1 SWAP5 SWAP1 SWAP4 POP SWAP2 POP POP JUMP JUMPDEST PUSH2 0x3A0 PUSH2 0xA11 JUMP JUMPDEST PUSH1 0x40 DUP1 MLOAD PUSH2 0x140 DUP2 ADD SWAP2 DUP3 SWAP1 MSTORE SWAP1 PUSH1 0xB SWAP1 PUSH1 0xA SWAP1 DUP3 DUP5 JUMPDEST DUP2 SLOAD PUSH1 0x1 PUSH1 0x1 PUSH1 0xA0 SHL SUB AND DUP2 MSTORE PUSH1 0x1 SWAP1 SWAP2 ADD SWAP1 PUSH1 0x20 ADD DUP1 DUP4 GT PUSH2 0x3B7 JUMPI POP POP POP POP POP SWAP1 POP SWAP1 JUMP JUMPDEST CALLER PUSH2 0x100 EQ PUSH2 0x400 JUMPI PUSH1 0x40 MLOAD PUSH4 0x191FBB75 PUSH1 0xE0 SHL DUP2 MSTORE PUSH1 0x4 ADD PUSH1 0x40 MLOAD DUP1 SWAP2 SUB SWAP1 REVERT JUMPDEST PUSH2 0x40D DUP6 DUP6 DUP6 DUP6 DUP6 PUSH2 0x60B JUMP JUMPDEST POP POP POP POP POP JUMP JUMPDEST PUSH2 0x41C PUSH2 0x825 JUMP JUMPDEST PUSH2 0x425 PUSH0 PUSH2 0x851 JUMP JUMPDEST JUMP JUMPDEST PUSH0 PUSH8 0xDE0B6B3A7640000 PUSH1 0x2 SLOAD PUSH2 0x43E SWAP2 SWAP1 PUSH2 0xC55 JUMP JUMPDEST SWAP1 POP SWAP1 JUMP JUMPDEST PUSH1 0x60 DUP1 PUSH1 0x1E DUP4 GT ISZERO PUSH2 0x48F JUMPI PUSH1 0x40 MLOAD PUSH3 0x461BCD PUSH1 0xE5 SHL DUP2 MSTORE PUSH1 0x20 PUSH1 0x4 DUP3 ADD MSTORE PUSH1 0x10 PUSH1 0x24 DUP3 ADD MSTORE PUSH16 0x4D616B73696D756D2033302068617269 PUSH1 0x80 SHL PUSH1 0x44 DUP3 ADD MSTORE PUSH1 0x64 ADD JUMPDEST PUSH1 0x40 MLOAD DUP1 SWAP2 SUB SWAP1 REVERT JUMPDEST PUSH0 PUSH2 0x49D PUSH3 0x15180 TIMESTAMP PUSH2 0xC55 JUMP JUMPDEST SWAP1 POP DUP4 PUSH8 0xFFFFFFFFFFFFFFFF DUP2 GT ISZERO PUSH2 0x4B8 JUMPI PUSH2 0x4B8 PUSH2 0xC74 JUMP JUMPDEST PUSH1 0x40 MLOAD SWAP1 DUP1 DUP3 MSTORE DUP1 PUSH1 0x20 MUL PUSH1 0x20 ADD DUP3 ADD PUSH1 0x40 MSTORE DUP1 ISZERO PUSH2 0x4E1 JUMPI DUP2 PUSH1 0x20 ADD PUSH1 0x20 DUP3 MUL DUP1 CALLDATASIZE DUP4 CALLDATACOPY ADD SWAP1 POP JUMPDEST POP SWAP3 POP DUP4 PUSH8 0xFFFFFFFFFFFFFFFF DUP2 GT ISZERO PUSH2 0x4FD JUMPI PUSH2 0x4FD PUSH2 0xC74 JUMP JUMPDEST PUSH1 0x40 MLOAD SWAP1 DUP1 DUP3 MSTORE DUP1 PUSH1 0x20 MUL PUSH1 0x20 ADD DUP3 ADD PUSH1 0x40 MSTORE DUP1 ISZERO PUSH2 0x526 JUMPI DUP2 PUSH1 0x20 ADD PUSH1 0x20 DUP3 MUL DUP1 CALLDATASIZE DUP4 CALLDATACOPY ADD SWAP1 POP JUMPDEST POP SWAP2 POP PUSH0 JUMPDEST DUP5 DUP2 LT ISZERO PUSH2 0x5A8 JUMPI PUSH0 PUSH2 0x53E DUP3 DUP5 PUSH2 0xC88 JUMP JUMPDEST SWAP1 POP PUSH1 0x6 PUSH0 DUP3 DUP2 MSTORE PUSH1 0x20 ADD SWAP1 DUP2 MSTORE PUSH1 0x20 ADD PUSH0 KECCAK256 SLOAD DUP6 DUP4 DUP2 MLOAD DUP2 LT PUSH2 0x564 JUMPI PUSH2 0x564 PUSH2 0xC9B JUMP JUMPDEST PUSH1 0x20 MUL PUSH1 0x20 ADD ADD DUP2 DUP2 MSTORE POP POP PUSH1 0x7 PUSH0 DUP3 DUP2 MSTORE PUSH1 0x20 ADD SWAP1 DUP2 MSTORE PUSH1 0x20 ADD PUSH0 KECCAK256 SLOAD DUP5 DUP4 DUP2 MLOAD DUP2 LT PUSH2 0x594 JUMPI PUSH2 0x594 PUSH2 0xC9B JUMP JUMPDEST PUSH1 0x20 SWAP1 DUP2 MUL SWAP2 SWAP1 SWAP2 ADD ADD MSTORE POP PUSH1 0x1 ADD PUSH2 0x52B JUMP JUMPDEST POP POP SWAP2 POP SWAP2 JUMP JUMPDEST PUSH1 0xB DUP2 PUSH1 0xA DUP2 LT PUSH2 0x5BE JUMPI PUSH0 DUP1 REVERT JUMPDEST ADD SLOAD PUSH1 0x1 PUSH1 0x1 PUSH1 0xA0 SHL SUB AND SWAP1 POP DUP2 JUMP JUMPDEST PUSH2 0x5D6 PUSH2 0x825 JUMP JUMPDEST PUSH1 0x1 PUSH1 0x1 PUSH1 0xA0 SHL SUB DUP2 AND PUSH2 0x5FF JUMPI PUSH1 0x40 MLOAD PUSH4 0x1E4FBDF7 PUSH1 0xE0 SHL DUP2 MSTORE PUSH0 PUSH1 0x4 DUP3 ADD MSTORE PUSH1 0x24 ADD PUSH2 0x486 JUMP JUMPDEST PUSH2 0x608 DUP2 PUSH2 0x851 JUMP JUMPDEST POP JUMP JUMPDEST PUSH0 DUP5 DUP5 PUSH1 0x1 DUP2 DUP2 LT PUSH2 0x61F JUMPI PUSH2 0x61F PUSH2 0xC9B JUMP JUMPDEST PUSH1 0x20 MUL SWAP2 SWAP1 SWAP2 ADD CALLDATALOAD SWAP2 POP PUSH0 SWAP1 POP PUSH2 0x638 DUP4 DUP6 ADD DUP6 PUSH2 0xA5E JUMP JUMPDEST PUSH1 0x1 DUP1 SLOAD SWAP2 SWAP3 POP PUSH0 PUSH2 0x649 DUP4 PUSH2 0xCAF JUMP JUMPDEST SWAP2 SWAP1 POP SSTORE POP DUP1 PUSH1 0x2 PUSH0 DUP3 DUP3 SLOAD PUSH2 0x65F SWAP2 SWAP1 PUSH2 0xCC7 JUMP JUMPDEST SWAP1 SWAP2 SSTORE POP PUSH0 SWAP1 POP PUSH2 0x673 PUSH3 0x15180 TIMESTAMP PUSH2 0xC55 JUMP JUMPDEST PUSH0 DUP2 DUP2 MSTORE PUSH1 0x6 PUSH1 0x20 MSTORE PUSH1 0x40 DUP2 KECCAK256 DUP1 SLOAD SWAP3 SWAP4 POP SWAP1 PUSH2 0x68F DUP4 PUSH2 0xCAF JUMP JUMPDEST SWAP1 SWAP2 SSTORE POP POP PUSH0 DUP2 DUP2 MSTORE PUSH1 0x7 PUSH1 0x20 MSTORE PUSH1 0x40 DUP2 KECCAK256 DUP1 SLOAD DUP5 SWAP3 SWAP1 PUSH2 0x6B1 SWAP1 DUP5 SWAP1 PUSH2 0xCC7 JUMP JUMPDEST SWAP1 SWAP2 SSTORE POP POP PUSH1 0x1 PUSH1 0x1 PUSH1 0xA0 SHL SUB DUP4 AND PUSH0 SWAP1 DUP2 MSTORE PUSH1 0xA PUSH1 0x20 MSTORE PUSH1 0x40 SWAP1 KECCAK256 SLOAD PUSH1 0xFF AND PUSH2 0x70B JUMPI PUSH1 0x1 PUSH1 0x1 PUSH1 0xA0 SHL SUB DUP4 AND PUSH0 SWAP1 DUP2 MSTORE PUSH1 0xA PUSH1 0x20 MSTORE PUSH1 0x40 DUP2 KECCAK256 DUP1 SLOAD PUSH1 0xFF NOT AND PUSH1 0x1 OR SWAP1 SSTORE PUSH1 0x3 DUP1 SLOAD SWAP2 PUSH2 0x705 DUP4 PUSH2 0xCAF JUMP JUMPDEST SWAP2 SWAP1 POP SSTORE POP JUMPDEST PUSH1 0x1 PUSH1 0x1 PUSH1 0xA0 SHL SUB DUP4 AND PUSH0 SWAP1 DUP2 MSTORE PUSH1 0x8 PUSH1 0x20 MSTORE PUSH1 0x40 DUP2 KECCAK256 DUP1 SLOAD SWAP2 PUSH2 0x72E DUP4 PUSH2 0xCAF JUMP JUMPDEST SWAP1 SWAP2 SSTORE POP POP PUSH1 0x1 PUSH1 0x1 PUSH1 0xA0 SHL SUB DUP4 AND PUSH0 SWAP1 DUP2 MSTORE PUSH1 0x9 PUSH1 0x20 MSTORE PUSH1 0x40 DUP2 KECCAK256 DUP1 SLOAD DUP5 SWAP3 SWAP1 PUSH2 0x75A SWAP1 DUP5 SWAP1 PUSH2 0xCC7 JUMP JUMPDEST SWAP1 SWAP2 SSTORE POP POP PUSH1 0x4 SLOAD DUP3 GT ISZERO PUSH2 0x7C5 JUMPI PUSH1 0x4 DUP3 SWAP1 SSTORE PUSH1 0x5 DUP1 SLOAD PUSH1 0x1 PUSH1 0x1 PUSH1 0xA0 SHL SUB NOT AND PUSH1 0x1 PUSH1 0x1 PUSH1 0xA0 SHL SUB DUP6 AND SWAP1 DUP2 OR SWAP1 SWAP2 SSTORE PUSH1 0x40 DUP1 MLOAD DUP5 DUP2 MSTORE TIMESTAMP PUSH1 0x20 DUP3 ADD MSTORE PUSH32 0x8B43064B6B9C8FA71F6B8765934DBA64974D0AF7C3C3CCEE4C0E0747CFA8E8F4 SWAP2 ADD PUSH1 0x40 MLOAD DUP1 SWAP2 SUB SWAP1 LOG2 JUMPDEST PUSH2 0x7CE DUP4 PUSH2 0x8A0 JUMP JUMPDEST PUSH1 0x1 SLOAD PUSH1 0x2 SLOAD PUSH1 0x3 SLOAD PUSH1 0x40 DUP1 MLOAD SWAP4 DUP5 MSTORE PUSH1 0x20 DUP5 ADD SWAP3 SWAP1 SWAP3 MSTORE DUP3 DUP3 ADD MSTORE TIMESTAMP PUSH1 0x60 DUP4 ADD MSTORE MLOAD PUSH32 0xDF601DC9CAB1949DB7D829DED79C76070375083F98D23C3E5DE99FF9FDAB542A SWAP2 DUP2 SWAP1 SUB PUSH1 0x80 ADD SWAP1 LOG1 POP POP POP POP POP POP POP POP JUMP JUMPDEST PUSH0 SLOAD PUSH1 0x1 PUSH1 0x1 PUSH1 0xA0 SHL SUB AND CALLER EQ PUSH2 0x425 JUMPI PUSH1 0x40 MLOAD PUSH4 0x118CDAA7 PUSH1 0xE0 SHL DUP2 MSTORE CALLER PUSH1 0x4 DUP3 ADD MSTORE PUSH1 0x24 ADD PUSH2 0x486 JUMP JUMPDEST PUSH0 DUP1 SLOAD PUSH1 0x1 PUSH1 0x1 PUSH1 0xA0 SHL SUB DUP4 DUP2 AND PUSH1 0x1 PUSH1 0x1 PUSH1 0xA0 SHL SUB NOT DUP4 AND DUP2 OR DUP5 SSTORE PUSH1 0x40 MLOAD SWAP2 SWAP1 SWAP3 AND SWAP3 DUP4 SWAP2 PUSH32 0x8BE0079C531659141344CD1FD0A4F28419497F9722A3DAAFE3B4186F6B6457E0 SWAP2 SWAP1 LOG3 POP POP JUMP JUMPDEST PUSH1 0x1 PUSH1 0x1 PUSH1 0xA0 SHL SUB DUP2 AND PUSH0 SWAP1 DUP2 MSTORE PUSH1 0x8 PUSH1 0x20 MSTORE PUSH1 0x40 DUP2 KECCAK256 SLOAD SWAP1 JUMPDEST PUSH1 0xA DUP2 LT ISZERO PUSH2 0xA0C JUMPI DUP3 PUSH1 0x1 PUSH1 0x1 PUSH1 0xA0 SHL SUB AND PUSH1 0xB DUP3 PUSH1 0xA DUP2 LT PUSH2 0x8E0 JUMPI PUSH2 0x8E0 PUSH2 0xC9B JUMP JUMPDEST ADD SLOAD PUSH1 0x1 PUSH1 0x1 PUSH1 0xA0 SHL SUB AND SUB PUSH2 0x8F5 JUMPI POP POP POP JUMP JUMPDEST PUSH0 PUSH1 0xB DUP3 PUSH1 0xA DUP2 LT PUSH2 0x909 JUMPI PUSH2 0x909 PUSH2 0xC9B JUMP JUMPDEST ADD SLOAD PUSH1 0x1 PUSH1 0x1 PUSH1 0xA0 SHL SUB AND EQ DUP1 PUSH2 0x94F JUMPI POP DUP2 PUSH1 0x8 PUSH0 PUSH1 0xB DUP5 PUSH1 0xA DUP2 LT PUSH2 0x932 JUMPI PUSH2 0x932 PUSH2 0xC9B JUMP JUMPDEST ADD SLOAD PUSH1 0x1 PUSH1 0x1 PUSH1 0xA0 SHL SUB AND DUP2 MSTORE PUSH1 0x20 DUP2 ADD SWAP2 SWAP1 SWAP2 MSTORE PUSH1 0x40 ADD PUSH0 KECCAK256 SLOAD LT JUMPDEST ISZERO PUSH2 0xA04 JUMPI PUSH1 0x9 JUMPDEST DUP2 DUP2 GT ISZERO PUSH2 0x9CB JUMPI PUSH1 0xB PUSH2 0x96C PUSH1 0x1 DUP4 PUSH2 0xC88 JUMP JUMPDEST PUSH1 0xA DUP2 LT PUSH2 0x97C JUMPI PUSH2 0x97C PUSH2 0xC9B JUMP JUMPDEST ADD SLOAD PUSH1 0x1 PUSH1 0x1 PUSH1 0xA0 SHL SUB AND PUSH1 0xB DUP3 PUSH1 0xA DUP2 LT PUSH2 0x99A JUMPI PUSH2 0x99A PUSH2 0xC9B JUMP JUMPDEST ADD DUP1 SLOAD PUSH1 0x1 PUSH1 0x1 PUSH1 0xA0 SHL SUB NOT AND PUSH1 0x1 PUSH1 0x1 PUSH1 0xA0 SHL SUB SWAP3 SWAP1 SWAP3 AND SWAP2 SWAP1 SWAP2 OR SWAP1 SSTORE DUP1 PUSH2 0x9C3 DUP2 PUSH2 0xCDA JUMP JUMPDEST SWAP2 POP POP PUSH2 0x957 JUMP JUMPDEST POP DUP3 PUSH1 0xB DUP3 PUSH1 0xA DUP2 LT PUSH2 0x9E0 JUMPI PUSH2 0x9E0 PUSH2 0xC9B JUMP JUMPDEST ADD DUP1 SLOAD PUSH1 0x1 PUSH1 0x1 PUSH1 0xA0 SHL SUB NOT AND PUSH1 0x1 PUSH1 0x1 PUSH1 0xA0 SHL SUB SWAP3 SWAP1 SWAP3 AND SWAP2 SWAP1 SWAP2 OR SWAP1 SSTORE POP POP POP JUMP JUMPDEST PUSH1 0x1 ADD PUSH2 0x8BA JUMP JUMPDEST POP POP POP JUMP JUMPDEST PUSH1 0x40 MLOAD DUP1 PUSH2 0x140 ADD PUSH1 0x40 MSTORE DUP1 PUSH1 0xA SWAP1 PUSH1 0x20 DUP3 MUL DUP1 CALLDATASIZE DUP4 CALLDATACOPY POP SWAP2 SWAP3 SWAP2 POP POP JUMP JUMPDEST PUSH0 PUSH1 0x20 DUP3 DUP5 SUB SLT ISZERO PUSH2 0xA40 JUMPI PUSH0 PUSH0 REVERT JUMPDEST DUP2 CALLDATALOAD PUSH1 0x1 PUSH1 0x1 PUSH1 0xE0 SHL SUB NOT DUP2 AND DUP2 EQ PUSH2 0xA57 JUMPI PUSH0 PUSH0 REVERT JUMPDEST SWAP4 SWAP3 POP POP POP JUMP JUMPDEST PUSH0 PUSH1 0x20 DUP3 DUP5 SUB SLT ISZERO PUSH2 0xA6E JUMPI PUSH0 PUSH0 REVERT JUMPDEST POP CALLDATALOAD SWAP2 SWAP1 POP JUMP JUMPDEST DUP1 CALLDATALOAD PUSH1 0x1 PUSH1 0x1 PUSH1 0xA0 SHL SUB DUP2 AND DUP2 EQ PUSH2 0xA8B JUMPI PUSH0 PUSH0 REVERT JUMPDEST SWAP2 SWAP1 POP JUMP JUMPDEST PUSH0 PUSH1 0x20 DUP3 DUP5 SUB SLT ISZERO PUSH2 0xAA0 JUMPI PUSH0 PUSH0 REVERT JUMPDEST PUSH2 0xA57 DUP3 PUSH2 0xA75 JUMP JUMPDEST PUSH2 0x140 DUP2 ADD DUP2 DUP4 PUSH0 JUMPDEST PUSH1 0xA DUP2 LT ISZERO PUSH2 0xADA JUMPI DUP2 MLOAD PUSH1 0x1 PUSH1 0x1 PUSH1 0xA0 SHL SUB AND DUP4 MSTORE PUSH1 0x20 SWAP3 DUP4 ADD SWAP3 SWAP1 SWAP2 ADD SWAP1 PUSH1 0x1 ADD PUSH2 0xAB2 JUMP JUMPDEST POP POP POP SWAP3 SWAP2 POP POP JUMP JUMPDEST PUSH0 PUSH0 DUP4 PUSH1 0x1F DUP5 ADD SLT PUSH2 0xAF3 JUMPI PUSH0 PUSH0 REVERT JUMPDEST POP DUP2 CALLDATALOAD PUSH8 0xFFFFFFFFFFFFFFFF DUP2 GT ISZERO PUSH2 0xB0A JUMPI PUSH0 PUSH0 REVERT JUMPDEST PUSH1 0x20 DUP4 ADD SWAP2 POP DUP4 PUSH1 0x20 DUP3 DUP6 ADD ADD GT ISZERO PUSH2 0xB21 JUMPI PUSH0 PUSH0 REVERT JUMPDEST SWAP3 POP SWAP3 SWAP1 POP JUMP JUMPDEST PUSH0 PUSH0 PUSH0 PUSH0 PUSH0 PUSH1 0x60 DUP7 DUP9 SUB SLT ISZERO PUSH2 0xB3C JUMPI PUSH0 PUSH0 REVERT JUMPDEST PUSH2 0xB45 DUP7 PUSH2 0xA75 JUMP JUMPDEST SWAP5 POP PUSH1 0x20 DUP7 ADD CALLDATALOAD PUSH8 0xFFFFFFFFFFFFFFFF DUP2 GT ISZERO PUSH2 0xB60 JUMPI PUSH0 PUSH0 REVERT JUMPDEST DUP7 ADD PUSH1 0x1F DUP2 ADD DUP9 SGT PUSH2 0xB70 JUMPI PUSH0 PUSH0 REVERT JUMPDEST DUP1 CALLDATALOAD PUSH8 0xFFFFFFFFFFFFFFFF DUP2 GT ISZERO PUSH2 0xB86 JUMPI PUSH0 PUSH0 REVERT JUMPDEST DUP9 PUSH1 0x20 DUP3 PUSH1 0x5 SHL DUP5 ADD ADD GT ISZERO PUSH2 0xB9A JUMPI PUSH0 PUSH0 REVERT JUMPDEST PUSH1 0x20 SWAP2 SWAP1 SWAP2 ADD SWAP5 POP SWAP3 POP PUSH1 0x40 DUP7 ADD CALLDATALOAD PUSH8 0xFFFFFFFFFFFFFFFF DUP2 GT ISZERO PUSH2 0xBBD JUMPI PUSH0 PUSH0 REVERT JUMPDEST PUSH2 0xBC9 DUP9 DUP3 DUP10 ADD PUSH2 0xAE3 JUMP JUMPDEST SWAP7 SWAP10 SWAP6 SWAP9 POP SWAP4 SWAP7 POP SWAP3 SWAP5 SWAP4 SWAP3 POP POP POP JUMP JUMPDEST PUSH0 DUP2 MLOAD DUP1 DUP5 MSTORE PUSH1 0x20 DUP5 ADD SWAP4 POP PUSH1 0x20 DUP4 ADD PUSH0 JUMPDEST DUP3 DUP2 LT ISZERO PUSH2 0xC0A JUMPI DUP2 MLOAD DUP7 MSTORE PUSH1 0x20 SWAP6 DUP7 ADD SWAP6 SWAP1 SWAP2 ADD SWAP1 PUSH1 0x1 ADD PUSH2 0xBEC JUMP JUMPDEST POP SWAP4 SWAP5 SWAP4 POP POP POP POP JUMP JUMPDEST PUSH1 0x40 DUP2 MSTORE PUSH0 PUSH2 0xC26 PUSH1 0x40 DUP4 ADD DUP6 PUSH2 0xBDA JUMP JUMPDEST DUP3 DUP2 SUB PUSH1 0x20 DUP5 ADD MSTORE PUSH2 0xC38 DUP2 DUP6 PUSH2 0xBDA JUMP JUMPDEST SWAP6 SWAP5 POP POP POP POP POP JUMP JUMPDEST PUSH4 0x4E487B71 PUSH1 0xE0 SHL PUSH0 MSTORE PUSH1 0x11 PUSH1 0x4 MSTORE PUSH1 0x24 PUSH0 REVERT JUMPDEST PUSH0 DUP3 PUSH2 0xC6F JUMPI PUSH4 0x4E487B71 PUSH1 0xE0 SHL PUSH0 MSTORE PUSH1 0x12 PUSH1 0x4 MSTORE PUSH1 0x24 PUSH0 REVERT JUMPDEST POP DIV SWAP1 JUMP JUMPDEST PUSH4 0x4E487B71 PUSH1 0xE0 SHL PUSH0 MSTORE PUSH1 0x41 PUSH1 0x4 MSTORE PUSH1 0x24 PUSH0 REVERT JUMPDEST DUP2 DUP2 SUB DUP2 DUP2 GT ISZERO PUSH2 0x35E JUMPI PUSH2 0x35E PUSH2 0xC41 JUMP JUMPDEST PUSH4 0x4E487B71 PUSH1 0xE0 SHL PUSH0 MSTORE PUSH1 0x32 PUSH1 0x4 MSTORE PUSH1 0x24 PUSH0 REVERT JUMPDEST PUSH0 PUSH1 0x1 DUP3 ADD PUSH2 0xCC0 JUMPI PUSH2 0xCC0 PUSH2 0xC41 JUMP JUMPDEST POP PUSH1 0x1 ADD SWAP1 JUMP JUMPDEST DUP1 DUP3 ADD DUP1 DUP3 GT ISZERO PUSH2 0x35E JUMPI PUSH2 0x35E PUSH2 0xC41 JUMP JUMPDEST PUSH0 DUP2 PUSH2 0xCE8 JUMPI PUSH2 0xCE8 PUSH2 0xC41 JUMP JUMPDEST POP PUSH0 NOT ADD SWAP1 JUMP INVALID LOG2 PUSH5 0x6970667358 0x22 SLT KECCAK256 PUSH20 0x90243C78C93C9AC29C4E34D32C46100F79BD5705 ISZERO 0xC4 PUSH7 0xC098B2AB09C5BC ADDMOD PUSH5 0x736F6C6343 STOP ADDMOD 0x1E STOP CALLER "},"methodIdentifiers":{"addressTxCount(address)":"d4839c75","addressVolume(address)":"2248156e","dailyTxCount(uint256)":"061d4d84","dailyVolume(uint256)":"943ca3b9","deployedAt()":"eae4c19f","getRecentDailyStats(uint256)":"d5970396","getTodayStats()":"0450f58f","getTopAddresses()":"25c7e8e5","getTotalVolumeSTT()":"b3c2222c","isKnownAddress(address)":"21c965de","largestTransactionEver()":"6e4f9357","largestTxSender()":"4c71e640","onEvent(address,bytes32[],bytes)":"53edf33d","owner()":"8da5cb5b","renounceOwnership()":"715018a6","supportsInterface(bytes4)":"01ffc9a7","topAddresses(uint256)":"f12cd04e","totalTransactions()":"b9a60038","totalVolumeWei()":"bd14b499","transferOwnership(address)":"f2fde38b","uniqueAddressCount()":"95b9be33"}}}}}