{"src/AlertEngine.sol":{"AlertEngine":{"abi":[{"inputs":[],"stateMutability":"nonpayable","type":"constructor"},{"inputs":[],"name":"OnlyReactivityPrecompile","type":"error"},{"inputs":[{"internalType":"address","name":"owner","type":"address"}],"name":"OwnableInvalidOwner","type":"error"},{"inputs":[{"internalType":"address","name":"account","type":"address"}],"name":"OwnableUnauthorizedAccount","type":"error"},{"anonymous":false,"inputs":[{"indexed":true,"internalType":"uint256","name":"ruleId","type":"uint256"},{"indexed":true,"internalType":"address","name":"ruleOwner","type":"address"},{"indexed":false,"internalType":"address","name":"from","type":"address"},{"indexed":false,"internalType":"address","name":"to","type":"address"},{"indexed":false,"internalType":"uint256","name":"amount","type":"uint256"},{"indexed":false,"internalType":"string","name":"message","type":"string"},{"indexed":false,"internalType":"uint256","name":"timestamp","type":"uint256"}],"name":"AlertTriggered","type":"event"},{"anonymous":false,"inputs":[{"indexed":true,"internalType":"address","name":"previousOwner","type":"address"},{"indexed":true,"internalType":"address","name":"newOwner","type":"address"}],"name":"OwnershipTransferred","type":"event"},{"anonymous":false,"inputs":[{"indexed":true,"internalType":"uint256","name":"ruleId","type":"uint256"},{"indexed":true,"internalType":"address","name":"owner","type":"address"},{"indexed":false,"internalType":"string","name":"message","type":"string"}],"name":"RuleCreated","type":"event"},{"anonymous":false,"inputs":[{"indexed":true,"internalType":"uint256","name":"ruleId","type":"uint256"},{"indexed":true,"internalType":"address","name":"owner","type":"address"}],"name":"RuleDeactivated","type":"event"},{"inputs":[{"internalType":"uint256","name":"threshold","type":"uint256"},{"internalType":"string","name":"message","type":"string"}],"name":"createAmountAlert","outputs":[{"internalType":"uint256","name":"ruleId","type":"uint256"}],"stateMutability":"nonpayable","type":"function"},{"inputs":[{"internalType":"address","name":"watchedAddress","type":"address"},{"internalType":"string","name":"message","type":"string"}],"name":"createFromAddressAlert","outputs":[{"internalType":"uint256","name":"ruleId","type":"uint256"}],"stateMutability":"nonpayable","type":"function"},{"inputs":[{"internalType":"address","name":"watchedAddress","type":"address"},{"internalType":"string","name":"message","type":"string"}],"name":"createToAddressAlert","outputs":[{"internalType":"uint256","name":"ruleId","type":"uint256"}],"stateMutability":"nonpayable","type":"function"},{"inputs":[{"internalType":"uint256","name":"ruleId","type":"uint256"}],"name":"deactivateRule","outputs":[],"stateMutability":"nonpayable","type":"function"},{"inputs":[{"internalType":"uint256","name":"ruleId","type":"uint256"}],"name":"getRule","outputs":[{"components":[{"internalType":"uint256","name":"id","type":"uint256"},{"internalType":"address","name":"owner","type":"address"},{"internalType":"enum AlertEngine.ConditionType","name":"condition","type":"uint8"},{"internalType":"uint256","name":"amountThreshold","type":"uint256"},{"internalType":"address","name":"targetAddress","type":"address"},{"internalType":"string","name":"message","type":"string"},{"internalType":"bool","name":"isActive","type":"bool"},{"internalType":"uint256","name":"triggerCount","type":"uint256"},{"internalType":"uint256","name":"createdAt","type":"uint256"}],"internalType":"struct AlertEngine.AlertRule","name":"","type":"tuple"}],"stateMutability":"view","type":"function"},{"inputs":[{"internalType":"address","name":"user","type":"address"}],"name":"getUserRuleIds","outputs":[{"internalType":"uint256[]","name":"","type":"uint256[]"}],"stateMutability":"view","type":"function"},{"inputs":[{"internalType":"address","name":"emitter","type":"address"},{"internalType":"bytes32[]","name":"eventTopics","type":"bytes32[]"},{"internalType":"bytes","name":"data","type":"bytes"}],"name":"onEvent","outputs":[],"stateMutability":"nonpayable","type":"function"},{"inputs":[],"name":"owner","outputs":[{"internalType":"address","name":"","type":"address"}],"stateMutability":"view","type":"function"},{"inputs":[],"name":"renounceOwnership","outputs":[],"stateMutability":"nonpayable","type":"function"},{"inputs":[{"internalType":"uint256","name":"","type":"uint256"}],"name":"rules","outputs":[{"internalType":"uint256","name":"id","type":"uint256"},{"internalType":"address","name":"owner","type":"address"},{"internalType":"enum AlertEngine.ConditionType","name":"condition","type":"uint8"},{"internalType":"uint256","name":"amountThreshold","type":"uint256"},{"internalType":"address","name":"targetAddress","type":"address"},{"internalType":"string","name":"message","type":"string"},{"internalType":"bool","name":"isActive","type":"bool"},{"internalType":"uint256","name":"triggerCount","type":"uint256"},{"internalType":"uint256","name":"createdAt","type":"uint256"}],"stateMutability":"view","type":"function"},{"inputs":[{"internalType":"bytes4","name":"interfaceId","type":"bytes4"}],"name":"supportsInterface","outputs":[{"internalType":"bool","name":"","type":"bool"}],"stateMutability":"pure","type":"function"},{"inputs":[],"name":"totalAlertsEmitted","outputs":[{"internalType":"uint256","name":"","type":"uint256"}],"stateMutability":"view","type":"function"},{"inputs":[],"name":"totalRulesCreated","outputs":[{"internalType":"uint256","name":"","type":"uint256"}],"stateMutability":"view","type":"function"},{"inputs":[{"internalType":"address","name":"newOwner","type":"address"}],"name":"transferOwnership","outputs":[],"stateMutability":"nonpayable","type":"function"},{"inputs":[{"internalType":"address","name":"","type":"address"},{"internalType":"uint256","name":"","type":"uint256"}],"name":"userRules","outputs":[{"internalType":"uint256","name":"","type":"uint256"}],"stateMutability":"view","type":"function"}],"evm":{"bytecode":{"linkReferences":{},"object":"6080604052600180553480156012575f5ffd5b503380603757604051631e4fbdf760e01b81525f600482015260240160405180910390fd5b603e816043565b506092565b5f80546001600160a01b038381166001600160a01b0319831681178455604051919092169283917f8be0079c531659141344cd1fd0a4f28419497f9722a3daafe3b4186f6b6457e09190a35050565b6112a88061009f5f395ff3fe608060405234801561000f575f5ffd5b50600436106100ef575f3560e01c8063715018a611610093578063d9d907f611610063578063d9d907f614610214578063e7fd03b514610227578063f2fde38b14610230578063f4c3ac8a14610243575f5ffd5b8063715018a6146101cc5780638baaf15b146101d45780638da5cb5b146101e7578063c361942c14610201575f5ffd5b80633a758ccc116100ce5780633a758ccc1461016457806348462037146101795780635180b1d01461019957806353edf33d146101b9575f5ffd5b8062cb8264146100f357806301ffc9a71461011957806304d6ded41461013c575b5f5ffd5b610106610101366004610caf565b61024c565b6040519081526020015b60405180910390f35b61012c610127366004610cfe565b610298565b6040519015158152602001610110565b61014f61014a366004610d2c565b6102ce565b60405161011099989796959493929190610da5565b610177610172366004610d2c565b6103b6565b005b61018c610187366004610d2c565b6104a6565b6040516101109190610e11565b6101ac6101a7366004610ec2565b61062c565b6040516101109190610edb565b6101776101c7366004610f1d565b610695565b6101776106cb565b6101066101e2366004610fcf565b6106de565b5f546040516001600160a01b039091168152602001610110565b61010661020f366004610ff7565b610709565b610106610222366004610caf565b61074c565b61010660045481565b61017761023e366004610ec2565b610790565b61010660055481565b5f6102903360025f8787878080601f0160208091040260200160405190810160405280939291908181526020018383808284375f920191909152506107cd92505050565b949350505050565b5f6301ffc9a760e01b6001600160e01b0319831614806102c857506353edf33d60e01b6001600160e01b03198316145b92915050565b600260208190525f91825260409091208054600182015492820154600383015460048401805493956001600160a01b0380821696600160a01b90920460ff169593169290919061031d90611026565b80601f016020809104026020016040519081016040528092919081815260200182805461034990611026565b80156103945780601f1061036b57610100808354040283529160200191610394565b820191905f5260205f20905b81548152906001019060200180831161037757829003601f168201915b5050505060058301546006840154600790940154929360ff9091169290915089565b5f81815260026020526040902060018101546001600160a01b0316331461041d5760405162461bcd60e51b815260206004820152601660248201527542756b616e2070656d696c696b2072756c6520696e6960501b60448201526064015b60405180910390fd5b600581015460ff1661046a5760405162461bcd60e51b8152602060048201526016602482015275293ab6329039bab230b4103a34b230b59030b5ba34b360511b6044820152606401610414565b60058101805460ff19169055604051339083907ff1fb8e30454f7590fccf3e61d916cc823b07da33d3bcfbd9c2e71e61b0393a3a905f90a35050565b6040805161012080820183525f808352602080840182905283850182905260608085018390526080850183905260a085015260c0840182905260e0840182905261010084018290528582526002815290849020845192830185528054835260018101546001600160a01b038116928401929092529293919291830190600160a01b900460ff16600481111561053d5761053d610d43565b600481111561054e5761054e610d43565b81526002820154602082015260038201546001600160a01b0316604082015260048201805460609092019161058290611026565b80601f01602080910402602001604051908101604052809291908181526020018280546105ae90611026565b80156105f95780601f106105d0576101008083540402835291602001916105f9565b820191905f5260205f20905b8154815290600101906020018083116105dc57829003601f168201915b5050509183525050600582015460ff16151560208201526006820154604082015260079091015460609091015292915050565b6001600160a01b0381165f9081526003602090815260409182902080548351818402810184019094528084526060939283018282801561068957602002820191905f5260205f20905b815481526020019060010190808311610675575b50505050509050919050565b33610100146106b75760405163191fbb7560e01b815260040160405180910390fd5b6106c485858585856109ab565b5050505050565b6106d3610bd4565b6106dc5f610c00565b565b6003602052815f5260405f2081815481106106f7575f80fd5b905f5260205f20015f91509150505481565b5f610290335f865f87878080601f0160208091040260200160405190810160405280939291908181526020018383808284375f920191909152506107cd92505050565b5f6102903360035f8787878080601f0160208091040260200160405190810160405280939291908181526020018383808284375f920191909152506107cd92505050565b610798610bd4565b6001600160a01b0381166107c157604051631e4fbdf760e01b81525f6004820152602401610414565b6107ca81610c00565b50565b600180545f91826107dd8361105e565b919050559050604051806101200160405280828152602001876001600160a01b0316815260200186600481111561081657610816610d43565b815260208082018790526001600160a01b03808716604080850191909152606084018790526001608085018190525f60a086018190524260c090960195909552868552600284529381902085518155928501519383018054949092166001600160a01b03198516811783559085015192936001600160a81b03191617600160a01b8360048111156108a9576108a9610d43565b02179055506060820151600282015560808201516003820180546001600160a01b0319166001600160a01b0390921691909117905560a082015160048201906108f290826110df565b5060c082015160058201805460ff191691151591909117905560e08201516006820155610100909101516007909101556001600160a01b0386165f9081526003602090815260408220805460018101825590835290822001829055600480549161095b8361105e565b9190505550856001600160a01b0316817f8058f41ca4e96672ee98a86eb186b2cc5882eabb156ded29ef5d570587fc07f48460405161099a919061119a565b60405180910390a395945050505050565b5f848460018181106109bf576109bf6111ac565b905060200201355f1c90505f858560028181106109de576109de6111ac565b602002919091013591505f90506109f784860186610d2c565b905060015b600154811015610bc9575f818152600260205260409020600581015460ff16610a255750610bc1565b5f806001830154600160a01b900460ff166004811115610a4757610a47610d43565b03610a59575060028101548311610b37565b600180830154600160a01b900460ff166004811115610a7a57610a7a610d43565b03610a8c575060028101548310610b37565b60026001830154600160a01b900460ff166004811115610aae57610aae610d43565b03610acc575060038101546001600160a01b03868116911614610b37565b60036001830154600160a01b900460ff166004811115610aee57610aee610d43565b03610b0c575060038101546001600160a01b03858116911614610b37565b60046001830154600160a01b900460ff166004811115610b2e57610b2e610d43565b03610b37575060015b8015610bbe57600682018054905f610b4e8361105e565b909155505060058054905f610b628361105e565b9091555050600182015482546040516001600160a01b03909216917f927b03a00752091b83795ff96f8ddbf820e1dbf4c5c813658635ebe2126fe08090610bb5908a908a908a9060048a019042906111c0565b60405180910390a35b50505b6001016109fc565b505050505050505050565b5f546001600160a01b031633146106dc5760405163118cdaa760e01b8152336004820152602401610414565b5f80546001600160a01b038381166001600160a01b0319831681178455604051919092169283917f8be0079c531659141344cd1fd0a4f28419497f9722a3daafe3b4186f6b6457e09190a35050565b80356001600160a01b0381168114610c65575f5ffd5b919050565b5f5f83601f840112610c7a575f5ffd5b50813567ffffffffffffffff811115610c91575f5ffd5b602083019150836020828501011115610ca8575f5ffd5b9250929050565b5f5f5f60408486031215610cc1575f5ffd5b610cca84610c4f565b9250602084013567ffffffffffffffff811115610ce5575f5ffd5b610cf186828701610c6a565b9497909650939450505050565b5f60208284031215610d0e575f5ffd5b81356001600160e01b031981168114610d25575f5ffd5b9392505050565b5f60208284031215610d3c575f5ffd5b5035919050565b634e487b7160e01b5f52602160045260245ffd5b60058110610d7357634e487b7160e01b5f52602160045260245ffd5b9052565b5f81518084528060208401602086015e5f602082860101526020601f19601f83011685010191505092915050565b8981526001600160a01b0389166020820152610dc46040820189610d57565b86606082015260018060a01b038616608082015261012060a08201525f610def610120830187610d77565b94151560c08301525060e0810192909252610100909101529695505050505050565b60208152815160208201525f6020830151610e3760408401826001600160a01b03169052565b506040830151610e4a6060840182610d57565b50606083015160808301526080830151610e6f60a08401826001600160a01b03169052565b5060a083015161012060c0840152610e8b610140840182610d77565b905060c0840151610ea060e085018215159052565b5060e08401516101008401526101008401516101208401528091505092915050565b5f60208284031215610ed2575f5ffd5b610d2582610c4f565b602080825282518282018190525f918401906040840190835b81811015610f12578351835260209384019390920191600101610ef4565b509095945050505050565b5f5f5f5f5f60608688031215610f31575f5ffd5b610f3a86610c4f565b9450602086013567ffffffffffffffff811115610f55575f5ffd5b8601601f81018813610f65575f5ffd5b803567ffffffffffffffff811115610f7b575f5ffd5b8860208260051b8401011115610f8f575f5ffd5b60209190910194509250604086013567ffffffffffffffff811115610fb2575f5ffd5b610fbe88828901610c6a565b969995985093965092949392505050565b5f5f60408385031215610fe0575f5ffd5b610fe983610c4f565b946020939093013593505050565b5f5f5f60408486031215611009575f5ffd5b83359250602084013567ffffffffffffffff811115610ce5575f5ffd5b600181811c9082168061103a57607f821691505b60208210810361105857634e487b7160e01b5f52602260045260245ffd5b50919050565b5f6001820161107b57634e487b7160e01b5f52601160045260245ffd5b5060010190565b634e487b7160e01b5f52604160045260245ffd5b601f8211156110da57805f5260205f20601f840160051c810160208510156110bb5750805b601f840160051c820191505b818110156106c4575f81556001016110c7565b505050565b815167ffffffffffffffff8111156110f9576110f9611082565b61110d816111078454611026565b84611096565b6020601f82116001811461113f575f83156111285750848201515b5f19600385901b1c1916600184901b1784556106c4565b5f84815260208120601f198516915b8281101561116e578785015182556020948501946001909201910161114e565b508482101561118b57868401515f19600387901b60f8161c191681555b50505050600190811b01905550565b602081525f610d256020830184610d77565b634e487b7160e01b5f52603260045260245ffd5b6001600160a01b038681168252851660208201526040810184905260a0606082015282545f9081906111f181611026565b8060a0860152600182165f811461120f576001811461122b5761125c565b60ff19831660c087015260c082151560051b870101935061125c565b875f5260205f205f5b8381101561125357815488820160c00152600190910190602001611234565b870160c0019450505b505050608092909201929092529594505050505056fea2646970667358221220e963be60ba73e7800ea2bb4dc08278dab2a4af4143db72ddc2e71599d7dc1c8464736f6c634300081e0033","opcodes":"PUSH1 0x80 PUSH1 0x40 MSTORE PUSH1 0x1 DUP1 SSTORE CALLVALUE DUP1 ISZERO PUSH1 0x12 JUMPI PUSH0 PUSH0 REVERT JUMPDEST POP CALLER DUP1 PUSH1 0x37 JUMPI PUSH1 0x40 MLOAD PUSH4 0x1E4FBDF7 PUSH1 0xE0 SHL DUP2 MSTORE PUSH0 PUSH1 0x4 DUP3 ADD MSTORE PUSH1 0x24 ADD PUSH1 0x40 MLOAD DUP1 SWAP2 SUB SWAP1 REVERT JUMPDEST PUSH1 0x3E DUP2 PUSH1 0x43 JUMP JUMPDEST POP PUSH1 0x92 JUMP JUMPDEST PUSH0 DUP1 SLOAD PUSH1 0x1 PUSH1 0x1 PUSH1 0xA0 SHL SUB DUP4 DUP2 AND PUSH1 0x1 PUSH1 0x1 PUSH1 0xA0 SHL SUB NOT DUP4 AND DUP2 OR DUP5 SSTORE PUSH1 0x40 MLOAD SWAP2 SWAP1 SWAP3 AND SWAP3 DUP4 SWAP2 PUSH32 0x8BE0079C531659141344CD1FD0A4F28419497F9722A3DAAFE3B4186F6B6457E0 SWAP2 SWAP1 LOG3 POP POP JUMP JUMPDEST PUSH2 0x12A8 DUP1 PUSH2 0x9F PUSH0 CODECOPY PUSH0 RETURN INVALID PUSH1 0x80 PUSH1 0x40 MSTORE CALLVALUE DUP1 ISZERO PUSH2 0xF JUMPI PUSH0 PUSH0 REVERT JUMPDEST POP PUSH1 0x4 CALLDATASIZE LT PUSH2 0xEF JUMPI PUSH0 CALLDATALOAD PUSH1 0xE0 SHR DUP1 PUSH4 0x715018A6 GT PUSH2 0x93 JUMPI DUP1 PUSH4 0xD9D907F6 GT PUSH2 0x63 JUMPI DUP1 PUSH4 0xD9D907F6 EQ PUSH2 0x214 JUMPI DUP1 PUSH4 0xE7FD03B5 EQ PUSH2 0x227 JUMPI DUP1 PUSH4 0xF2FDE38B EQ PUSH2 0x230 JUMPI DUP1 PUSH4 0xF4C3AC8A EQ PUSH2 0x243 JUMPI PUSH0 PUSH0 REVERT JUMPDEST DUP1 PUSH4 0x715018A6 EQ PUSH2 0x1CC JUMPI DUP1 PUSH4 0x8BAAF15B EQ PUSH2 0x1D4 JUMPI DUP1 PUSH4 0x8DA5CB5B EQ PUSH2 0x1E7 JUMPI DUP1 PUSH4 0xC361942C EQ PUSH2 0x201 JUMPI PUSH0 PUSH0 REVERT JUMPDEST DUP1 PUSH4 0x3A758CCC GT PUSH2 0xCE JUMPI DUP1 PUSH4 0x3A758CCC EQ PUSH2 0x164 JUMPI DUP1 PUSH4 0x48462037 EQ PUSH2 0x179 JUMPI DUP1 PUSH4 0x5180B1D0 EQ PUSH2 0x199 JUMPI DUP1 PUSH4 0x53EDF33D EQ PUSH2 0x1B9 JUMPI PUSH0 PUSH0 REVERT JUMPDEST DUP1 PUSH3 0xCB8264 EQ PUSH2 0xF3 JUMPI DUP1 PUSH4 0x1FFC9A7 EQ PUSH2 0x119 JUMPI DUP1 PUSH4 0x4D6DED4 EQ PUSH2 0x13C JUMPI JUMPDEST PUSH0 PUSH0 REVERT JUMPDEST PUSH2 0x106 PUSH2 0x101 CALLDATASIZE PUSH1 0x4 PUSH2 0xCAF JUMP JUMPDEST PUSH2 0x24C JUMP JUMPDEST PUSH1 0x40 MLOAD SWAP1 DUP2 MSTORE PUSH1 0x20 ADD JUMPDEST PUSH1 0x40 MLOAD DUP1 SWAP2 SUB SWAP1 RETURN JUMPDEST PUSH2 0x12C PUSH2 0x127 CALLDATASIZE PUSH1 0x4 PUSH2 0xCFE JUMP JUMPDEST PUSH2 0x298 JUMP JUMPDEST PUSH1 0x40 MLOAD SWAP1 ISZERO ISZERO DUP2 MSTORE PUSH1 0x20 ADD PUSH2 0x110 JUMP JUMPDEST PUSH2 0x14F PUSH2 0x14A CALLDATASIZE PUSH1 0x4 PUSH2 0xD2C JUMP JUMPDEST PUSH2 0x2CE JUMP JUMPDEST PUSH1 0x40 MLOAD PUSH2 0x110 SWAP10 SWAP9 SWAP8 SWAP7 SWAP6 SWAP5 SWAP4 SWAP3 SWAP2 SWAP1 PUSH2 0xDA5 JUMP JUMPDEST PUSH2 0x177 PUSH2 0x172 CALLDATASIZE PUSH1 0x4 PUSH2 0xD2C JUMP JUMPDEST PUSH2 0x3B6 JUMP JUMPDEST STOP JUMPDEST PUSH2 0x18C PUSH2 0x187 CALLDATASIZE PUSH1 0x4 PUSH2 0xD2C JUMP JUMPDEST PUSH2 0x4A6 JUMP JUMPDEST PUSH1 0x40 MLOAD PUSH2 0x110 SWAP2 SWAP1 PUSH2 0xE11 JUMP JUMPDEST PUSH2 0x1AC PUSH2 0x1A7 CALLDATASIZE PUSH1 0x4 PUSH2 0xEC2 JUMP JUMPDEST PUSH2 0x62C JUMP JUMPDEST PUSH1 0x40 MLOAD PUSH2 0x110 SWAP2 SWAP1 PUSH2 0xEDB JUMP JUMPDEST PUSH2 0x177 PUSH2 0x1C7 CALLDATASIZE PUSH1 0x4 PUSH2 0xF1D JUMP JUMPDEST PUSH2 0x695 JUMP JUMPDEST PUSH2 0x177 PUSH2 0x6CB JUMP JUMPDEST PUSH2 0x106 PUSH2 0x1E2 CALLDATASIZE PUSH1 0x4 PUSH2 0xFCF JUMP JUMPDEST PUSH2 0x6DE JUMP JUMPDEST PUSH0 SLOAD PUSH1 0x40 MLOAD PUSH1 0x1 PUSH1 0x1 PUSH1 0xA0 SHL SUB SWAP1 SWAP2 AND DUP2 MSTORE PUSH1 0x20 ADD PUSH2 0x110 JUMP JUMPDEST PUSH2 0x106 PUSH2 0x20F CALLDATASIZE PUSH1 0x4 PUSH2 0xFF7 JUMP JUMPDEST PUSH2 0x709 JUMP JUMPDEST PUSH2 0x106 PUSH2 0x222 CALLDATASIZE PUSH1 0x4 PUSH2 0xCAF JUMP JUMPDEST PUSH2 0x74C JUMP JUMPDEST PUSH2 0x106 PUSH1 0x4 SLOAD DUP2 JUMP JUMPDEST PUSH2 0x177 PUSH2 0x23E CALLDATASIZE PUSH1 0x4 PUSH2 0xEC2 JUMP JUMPDEST PUSH2 0x790 JUMP JUMPDEST PUSH2 0x106 PUSH1 0x5 SLOAD DUP2 JUMP JUMPDEST PUSH0 PUSH2 0x290 CALLER PUSH1 0x2 PUSH0 DUP8 DUP8 DUP8 DUP1 DUP1 PUSH1 0x1F ADD PUSH1 0x20 DUP1 SWAP2 DIV MUL PUSH1 0x20 ADD PUSH1 0x40 MLOAD SWAP1 DUP2 ADD PUSH1 0x40 MSTORE DUP1 SWAP4 SWAP3 SWAP2 SWAP1 DUP2 DUP2 MSTORE PUSH1 0x20 ADD DUP4 DUP4 DUP1 DUP3 DUP5 CALLDATACOPY PUSH0 SWAP3 ADD SWAP2 SWAP1 SWAP2 MSTORE POP PUSH2 0x7CD SWAP3 POP POP POP JUMP JUMPDEST SWAP5 SWAP4 POP POP POP POP JUMP JUMPDEST PUSH0 PUSH4 0x1FFC9A7 PUSH1 0xE0 SHL PUSH1 0x1 PUSH1 0x1 PUSH1 0xE0 SHL SUB NOT DUP4 AND EQ DUP1 PUSH2 0x2C8 JUMPI POP PUSH4 0x53EDF33D PUSH1 0xE0 SHL PUSH1 0x1 PUSH1 0x1 PUSH1 0xE0 SHL SUB NOT DUP4 AND EQ JUMPDEST SWAP3 SWAP2 POP POP JUMP JUMPDEST PUSH1 0x2 PUSH1 0x20 DUP2 SWAP1 MSTORE PUSH0 SWAP2 DUP3 MSTORE PUSH1 0x40 SWAP1 SWAP2 KECCAK256 DUP1 SLOAD PUSH1 0x1 DUP3 ADD SLOAD SWAP3 DUP3 ADD SLOAD PUSH1 0x3 DUP4 ADD SLOAD PUSH1 0x4 DUP5 ADD DUP1 SLOAD SWAP4 SWAP6 PUSH1 0x1 PUSH1 0x1 PUSH1 0xA0 SHL SUB DUP1 DUP3 AND SWAP7 PUSH1 0x1 PUSH1 0xA0 SHL SWAP1 SWAP3 DIV PUSH1 0xFF AND SWAP6 SWAP4 AND SWAP3 SWAP1 SWAP2 SWAP1 PUSH2 0x31D SWAP1 PUSH2 0x1026 JUMP JUMPDEST DUP1 PUSH1 0x1F ADD PUSH1 0x20 DUP1 SWAP2 DIV MUL PUSH1 0x20 ADD PUSH1 0x40 MLOAD SWAP1 DUP2 ADD PUSH1 0x40 MSTORE DUP1 SWAP3 SWAP2 SWAP1 DUP2 DUP2 MSTORE PUSH1 0x20 ADD DUP3 DUP1 SLOAD PUSH2 0x349 SWAP1 PUSH2 0x1026 JUMP JUMPDEST DUP1 ISZERO PUSH2 0x394 JUMPI DUP1 PUSH1 0x1F LT PUSH2 0x36B JUMPI PUSH2 0x100 DUP1 DUP4 SLOAD DIV MUL DUP4 MSTORE SWAP2 PUSH1 0x20 ADD SWAP2 PUSH2 0x394 JUMP JUMPDEST DUP3 ADD SWAP2 SWAP1 PUSH0 MSTORE PUSH1 0x20 PUSH0 KECCAK256 SWAP1 JUMPDEST DUP2 SLOAD DUP2 MSTORE SWAP1 PUSH1 0x1 ADD SWAP1 PUSH1 0x20 ADD DUP1 DUP4 GT PUSH2 0x377 JUMPI DUP3 SWAP1 SUB PUSH1 0x1F AND DUP3 ADD SWAP2 JUMPDEST POP POP POP POP PUSH1 0x5 DUP4 ADD SLOAD PUSH1 0x6 DUP5 ADD SLOAD PUSH1 0x7 SWAP1 SWAP5 ADD SLOAD SWAP3 SWAP4 PUSH1 0xFF SWAP1 SWAP2 AND SWAP3 SWAP1 SWAP2 POP DUP10 JUMP JUMPDEST PUSH0 DUP2 DUP2 MSTORE PUSH1 0x2 PUSH1 0x20 MSTORE PUSH1 0x40 SWAP1 KECCAK256 PUSH1 0x1 DUP2 ADD SLOAD PUSH1 0x1 PUSH1 0x1 PUSH1 0xA0 SHL SUB AND CALLER EQ PUSH2 0x41D JUMPI PUSH1 0x40 MLOAD PUSH3 0x461BCD PUSH1 0xE5 SHL DUP2 MSTORE PUSH1 0x20 PUSH1 0x4 DUP3 ADD MSTORE PUSH1 0x16 PUSH1 0x24 DUP3 ADD MSTORE PUSH22 0x42756B616E2070656D696C696B2072756C6520696E69 PUSH1 0x50 SHL PUSH1 0x44 DUP3 ADD MSTORE PUSH1 0x64 ADD JUMPDEST PUSH1 0x40 MLOAD DUP1 SWAP2 SUB SWAP1 REVERT JUMPDEST PUSH1 0x5 DUP2 ADD SLOAD PUSH1 0xFF AND PUSH2 0x46A JUMPI PUSH1 0x40 MLOAD PUSH3 0x461BCD PUSH1 0xE5 SHL DUP2 MSTORE PUSH1 0x20 PUSH1 0x4 DUP3 ADD MSTORE PUSH1 0x16 PUSH1 0x24 DUP3 ADD MSTORE PUSH22 0x293AB6329039BAB230B4103A34B230B59030B5BA34B3 PUSH1 0x51 SHL PUSH1 0x44 DUP3 ADD MSTORE PUSH1 0x64 ADD PUSH2 0x414 JUMP JUMPDEST PUSH1 0x5 DUP2 ADD DUP1 SLOAD PUSH1 0xFF NOT AND SWAP1 SSTORE PUSH1 0x40 MLOAD CALLER SWAP1 DUP4 SWAP1 PUSH32 0xF1FB8E30454F7590FCCF3E61D916CC823B07DA33D3BCFBD9C2E71E61B0393A3A SWAP1 PUSH0 SWAP1 LOG3 POP POP JUMP JUMPDEST PUSH1 0x40 DUP1 MLOAD PUSH2 0x120 DUP1 DUP3 ADD DUP4 MSTORE PUSH0 DUP1 DUP4 MSTORE PUSH1 0x20 DUP1 DUP5 ADD DUP3 SWAP1 MSTORE DUP4 DUP6 ADD DUP3 SWAP1 MSTORE PUSH1 0x60 DUP1 DUP6 ADD DUP4 SWAP1 MSTORE PUSH1 0x80 DUP6 ADD DUP4 SWAP1 MSTORE PUSH1 0xA0 DUP6 ADD MSTORE PUSH1 0xC0 DUP5 ADD DUP3 SWAP1 MSTORE PUSH1 0xE0 DUP5 ADD DUP3 SWAP1 MSTORE PUSH2 0x100 DUP5 ADD DUP3 SWAP1 MSTORE DUP6 DUP3 MSTORE PUSH1 0x2 DUP2 MSTORE SWAP1 DUP5 SWAP1 KECCAK256 DUP5 MLOAD SWAP3 DUP4 ADD DUP6 MSTORE DUP1 SLOAD DUP4 MSTORE PUSH1 0x1 DUP2 ADD SLOAD PUSH1 0x1 PUSH1 0x1 PUSH1 0xA0 SHL SUB DUP2 AND SWAP3 DUP5 ADD SWAP3 SWAP1 SWAP3 MSTORE SWAP3 SWAP4 SWAP2 SWAP3 SWAP2 DUP4 ADD SWAP1 PUSH1 0x1 PUSH1 0xA0 SHL SWAP1 DIV PUSH1 0xFF AND PUSH1 0x4 DUP2 GT ISZERO PUSH2 0x53D JUMPI PUSH2 0x53D PUSH2 0xD43 JUMP JUMPDEST PUSH1 0x4 DUP2 GT ISZERO PUSH2 0x54E JUMPI PUSH2 0x54E PUSH2 0xD43 JUMP JUMPDEST DUP2 MSTORE PUSH1 0x2 DUP3 ADD SLOAD PUSH1 0x20 DUP3 ADD MSTORE PUSH1 0x3 DUP3 ADD SLOAD PUSH1 0x1 PUSH1 0x1 PUSH1 0xA0 SHL SUB AND PUSH1 0x40 DUP3 ADD MSTORE PUSH1 0x4 DUP3 ADD DUP1 SLOAD PUSH1 0x60 SWAP1 SWAP3 ADD SWAP2 PUSH2 0x582 SWAP1 PUSH2 0x1026 JUMP JUMPDEST DUP1 PUSH1 0x1F ADD PUSH1 0x20 DUP1 SWAP2 DIV MUL PUSH1 0x20 ADD PUSH1 0x40 MLOAD SWAP1 DUP2 ADD PUSH1 0x40 MSTORE DUP1 SWAP3 SWAP2 SWAP1 DUP2 DUP2 MSTORE PUSH1 0x20 ADD DUP3 DUP1 SLOAD PUSH2 0x5AE SWAP1 PUSH2 0x1026 JUMP JUMPDEST DUP1 ISZERO PUSH2 0x5F9 JUMPI DUP1 PUSH1 0x1F LT PUSH2 0x5D0 JUMPI PUSH2 0x100 DUP1 DUP4 SLOAD DIV MUL DUP4 MSTORE SWAP2 PUSH1 0x20 ADD SWAP2 PUSH2 0x5F9 JUMP JUMPDEST DUP3 ADD SWAP2 SWAP1 PUSH0 MSTORE PUSH1 0x20 PUSH0 KECCAK256 SWAP1 JUMPDEST DUP2 SLOAD DUP2 MSTORE SWAP1 PUSH1 0x1 ADD SWAP1 PUSH1 0x20 ADD DUP1 DUP4 GT PUSH2 0x5DC JUMPI DUP3 SWAP1 SUB PUSH1 0x1F AND DUP3 ADD SWAP2 JUMPDEST POP POP POP SWAP2 DUP4 MSTORE POP POP PUSH1 0x5 DUP3 ADD SLOAD PUSH1 0xFF AND ISZERO ISZERO PUSH1 0x20 DUP3 ADD MSTORE PUSH1 0x6 DUP3 ADD SLOAD PUSH1 0x40 DUP3 ADD MSTORE PUSH1 0x7 SWAP1 SWAP2 ADD SLOAD PUSH1 0x60 SWAP1 SWAP2 ADD MSTORE SWAP3 SWAP2 POP POP JUMP JUMPDEST PUSH1 0x1 PUSH1 0x1 PUSH1 0xA0 SHL SUB DUP2 AND PUSH0 SWAP1 DUP2 MSTORE PUSH1 0x3 PUSH1 0x20 SWAP1 DUP2 MSTORE PUSH1 0x40 SWAP2 DUP3 SWAP1 KECCAK256 DUP1 SLOAD DUP4 MLOAD DUP2 DUP5 MUL DUP2 ADD DUP5 ADD SWAP1 SWAP5 MSTORE DUP1 DUP5 MSTORE PUSH1 0x60 SWAP4 SWAP3 DUP4 ADD DUP3 DUP3 DUP1 ISZERO PUSH2 0x689 JUMPI PUSH1 0x20 MUL DUP3 ADD SWAP2 SWAP1 PUSH0 MSTORE PUSH1 0x20 PUSH0 KECCAK256 SWAP1 JUMPDEST DUP2 SLOAD DUP2 MSTORE PUSH1 0x20 ADD SWAP1 PUSH1 0x1 ADD SWAP1 DUP1 DUP4 GT PUSH2 0x675 JUMPI JUMPDEST POP POP POP POP POP SWAP1 POP SWAP2 SWAP1 POP JUMP JUMPDEST CALLER PUSH2 0x100 EQ PUSH2 0x6B7 JUMPI PUSH1 0x40 MLOAD PUSH4 0x191FBB75 PUSH1 0xE0 SHL DUP2 MSTORE PUSH1 0x4 ADD PUSH1 0x40 MLOAD DUP1 SWAP2 SUB SWAP1 REVERT JUMPDEST PUSH2 0x6C4 DUP6 DUP6 DUP6 DUP6 DUP6 PUSH2 0x9AB JUMP JUMPDEST POP POP POP POP POP JUMP JUMPDEST PUSH2 0x6D3 PUSH2 0xBD4 JUMP JUMPDEST PUSH2 0x6DC PUSH0 PUSH2 0xC00 JUMP JUMPDEST JUMP JUMPDEST PUSH1 0x3 PUSH1 0x20 MSTORE DUP2 PUSH0 MSTORE PUSH1 0x40 PUSH0 KECCAK256 DUP2 DUP2 SLOAD DUP2 LT PUSH2 0x6F7 JUMPI PUSH0 DUP1 REVERT JUMPDEST SWAP1 PUSH0 MSTORE PUSH1 0x20 PUSH0 KECCAK256 ADD PUSH0 SWAP2 POP SWAP2 POP POP SLOAD DUP2 JUMP JUMPDEST PUSH0 PUSH2 0x290 CALLER PUSH0 DUP7 PUSH0 DUP8 DUP8 DUP1 DUP1 PUSH1 0x1F ADD PUSH1 0x20 DUP1 SWAP2 DIV MUL PUSH1 0x20 ADD PUSH1 0x40 MLOAD SWAP1 DUP2 ADD PUSH1 0x40 MSTORE DUP1 SWAP4 SWAP3 SWAP2 SWAP1 DUP2 DUP2 MSTORE PUSH1 0x20 ADD DUP4 DUP4 DUP1 DUP3 DUP5 CALLDATACOPY PUSH0 SWAP3 ADD SWAP2 SWAP1 SWAP2 MSTORE POP PUSH2 0x7CD SWAP3 POP POP POP JUMP JUMPDEST PUSH0 PUSH2 0x290 CALLER PUSH1 0x3 PUSH0 DUP8 DUP8 DUP8 DUP1 DUP1 PUSH1 0x1F ADD PUSH1 0x20 DUP1 SWAP2 DIV MUL PUSH1 0x20 ADD PUSH1 0x40 MLOAD SWAP1 DUP2 ADD PUSH1 0x40 MSTORE DUP1 SWAP4 SWAP3 SWAP2 SWAP1 DUP2 DUP2 MSTORE PUSH1 0x20 ADD DUP4 DUP4 DUP1 DUP3 DUP5 CALLDATACOPY PUSH0 SWAP3 ADD SWAP2 SWAP1 SWAP2 MSTORE POP PUSH2 0x7CD SWAP3 POP POP POP JUMP JUMPDEST PUSH2 0x798 PUSH2 0xBD4 JUMP JUMPDEST PUSH1 0x1 PUSH1 0x1 PUSH1 0xA0 SHL SUB DUP2 AND PUSH2 0x7C1 JUMPI PUSH1 0x40 MLOAD PUSH4 0x1E4FBDF7 PUSH1 0xE0 SHL DUP2 MSTORE PUSH0 PUSH1 0x4 DUP3 ADD MSTORE PUSH1 0x24 ADD PUSH2 0x414 JUMP JUMPDEST PUSH2 0x7CA DUP2 PUSH2 0xC00 JUMP JUMPDEST POP JUMP JUMPDEST PUSH1 0x1 DUP1 SLOAD PUSH0 SWAP2 DUP3 PUSH2 0x7DD DUP4 PUSH2 0x105E JUMP JUMPDEST SWAP2 SWAP1 POP SSTORE SWAP1 POP PUSH1 0x40 MLOAD DUP1 PUSH2 0x120 ADD PUSH1 0x40 MSTORE DUP1 DUP3 DUP2 MSTORE PUSH1 0x20 ADD DUP8 PUSH1 0x1 PUSH1 0x1 PUSH1 0xA0 SHL SUB AND DUP2 MSTORE PUSH1 0x20 ADD DUP7 PUSH1 0x4 DUP2 GT ISZERO PUSH2 0x816 JUMPI PUSH2 0x816 PUSH2 0xD43 JUMP JUMPDEST DUP2 MSTORE PUSH1 0x20 DUP1 DUP3 ADD DUP8 SWAP1 MSTORE PUSH1 0x1 PUSH1 0x1 PUSH1 0xA0 SHL SUB DUP1 DUP8 AND PUSH1 0x40 DUP1 DUP6 ADD SWAP2 SWAP1 SWAP2 MSTORE PUSH1 0x60 DUP5 ADD DUP8 SWAP1 MSTORE PUSH1 0x1 PUSH1 0x80 DUP6 ADD DUP2 SWAP1 MSTORE PUSH0 PUSH1 0xA0 DUP7 ADD DUP2 SWAP1 MSTORE TIMESTAMP PUSH1 0xC0 SWAP1 SWAP7 ADD SWAP6 SWAP1 SWAP6 MSTORE DUP7 DUP6 MSTORE PUSH1 0x2 DUP5 MSTORE SWAP4 DUP2 SWAP1 KECCAK256 DUP6 MLOAD DUP2 SSTORE SWAP3 DUP6 ADD MLOAD SWAP4 DUP4 ADD DUP1 SLOAD SWAP5 SWAP1 SWAP3 AND PUSH1 0x1 PUSH1 0x1 PUSH1 0xA0 SHL SUB NOT DUP6 AND DUP2 OR DUP4 SSTORE SWAP1 DUP6 ADD MLOAD SWAP3 SWAP4 PUSH1 0x1 PUSH1 0x1 PUSH1 0xA8 SHL SUB NOT AND OR PUSH1 0x1 PUSH1 0xA0 SHL DUP4 PUSH1 0x4 DUP2 GT ISZERO PUSH2 0x8A9 JUMPI PUSH2 0x8A9 PUSH2 0xD43 JUMP JUMPDEST MUL OR SWAP1 SSTORE POP PUSH1 0x60 DUP3 ADD MLOAD PUSH1 0x2 DUP3 ADD SSTORE PUSH1 0x80 DUP3 ADD MLOAD PUSH1 0x3 DUP3 ADD DUP1 SLOAD PUSH1 0x1 PUSH1 0x1 PUSH1 0xA0 SHL SUB NOT AND PUSH1 0x1 PUSH1 0x1 PUSH1 0xA0 SHL SUB SWAP1 SWAP3 AND SWAP2 SWAP1 SWAP2 OR SWAP1 SSTORE PUSH1 0xA0 DUP3 ADD MLOAD PUSH1 0x4 DUP3 ADD SWAP1 PUSH2 0x8F2 SWAP1 DUP3 PUSH2 0x10DF JUMP JUMPDEST POP PUSH1 0xC0 DUP3 ADD MLOAD PUSH1 0x5 DUP3 ADD DUP1 SLOAD PUSH1 0xFF NOT AND SWAP2 ISZERO ISZERO SWAP2 SWAP1 SWAP2 OR SWAP1 SSTORE PUSH1 0xE0 DUP3 ADD MLOAD PUSH1 0x6 DUP3 ADD SSTORE PUSH2 0x100 SWAP1 SWAP2 ADD MLOAD PUSH1 0x7 SWAP1 SWAP2 ADD SSTORE PUSH1 0x1 PUSH1 0x1 PUSH1 0xA0 SHL SUB DUP7 AND PUSH0 SWAP1 DUP2 MSTORE PUSH1 0x3 PUSH1 0x20 SWAP1 DUP2 MSTORE PUSH1 0x40 DUP3 KECCAK256 DUP1 SLOAD PUSH1 0x1 DUP2 ADD DUP3 SSTORE SWAP1 DUP4 MSTORE SWAP1 DUP3 KECCAK256 ADD DUP3 SWAP1 SSTORE PUSH1 0x4 DUP1 SLOAD SWAP2 PUSH2 0x95B DUP4 PUSH2 0x105E JUMP JUMPDEST SWAP2 SWAP1 POP SSTORE POP DUP6 PUSH1 0x1 PUSH1 0x1 PUSH1 0xA0 SHL SUB AND DUP2 PUSH32 0x8058F41CA4E96672EE98A86EB186B2CC5882EABB156DED29EF5D570587FC07F4 DUP5 PUSH1 0x40 MLOAD PUSH2 0x99A SWAP2 SWAP1 PUSH2 0x119A JUMP JUMPDEST PUSH1 0x40 MLOAD DUP1 SWAP2 SUB SWAP1 LOG3 SWAP6 SWAP5 POP POP POP POP POP JUMP JUMPDEST PUSH0 DUP5 DUP5 PUSH1 0x1 DUP2 DUP2 LT PUSH2 0x9BF JUMPI PUSH2 0x9BF PUSH2 0x11AC JUMP JUMPDEST SWAP1 POP PUSH1 0x20 MUL ADD CALLDATALOAD PUSH0 SHR SWAP1 POP PUSH0 DUP6 DUP6 PUSH1 0x2 DUP2 DUP2 LT PUSH2 0x9DE JUMPI PUSH2 0x9DE PUSH2 0x11AC JUMP JUMPDEST PUSH1 0x20 MUL SWAP2 SWAP1 SWAP2 ADD CALLDATALOAD SWAP2 POP PUSH0 SWAP1 POP PUSH2 0x9F7 DUP5 DUP7 ADD DUP7 PUSH2 0xD2C JUMP JUMPDEST SWAP1 POP PUSH1 0x1 JUMPDEST PUSH1 0x1 SLOAD DUP2 LT ISZERO PUSH2 0xBC9 JUMPI PUSH0 DUP2 DUP2 MSTORE PUSH1 0x2 PUSH1 0x20 MSTORE PUSH1 0x40 SWAP1 KECCAK256 PUSH1 0x5 DUP2 ADD SLOAD PUSH1 0xFF AND PUSH2 0xA25 JUMPI POP PUSH2 0xBC1 JUMP JUMPDEST PUSH0 DUP1 PUSH1 0x1 DUP4 ADD SLOAD PUSH1 0x1 PUSH1 0xA0 SHL SWAP1 DIV PUSH1 0xFF AND PUSH1 0x4 DUP2 GT ISZERO PUSH2 0xA47 JUMPI PUSH2 0xA47 PUSH2 0xD43 JUMP JUMPDEST SUB PUSH2 0xA59 JUMPI POP PUSH1 0x2 DUP2 ADD SLOAD DUP4 GT PUSH2 0xB37 JUMP JUMPDEST PUSH1 0x1 DUP1 DUP4 ADD SLOAD PUSH1 0x1 PUSH1 0xA0 SHL SWAP1 DIV PUSH1 0xFF AND PUSH1 0x4 DUP2 GT ISZERO PUSH2 0xA7A JUMPI PUSH2 0xA7A PUSH2 0xD43 JUMP JUMPDEST SUB PUSH2 0xA8C JUMPI POP PUSH1 0x2 DUP2 ADD SLOAD DUP4 LT PUSH2 0xB37 JUMP JUMPDEST PUSH1 0x2 PUSH1 0x1 DUP4 ADD SLOAD PUSH1 0x1 PUSH1 0xA0 SHL SWAP1 DIV PUSH1 0xFF AND PUSH1 0x4 DUP2 GT ISZERO PUSH2 0xAAE JUMPI PUSH2 0xAAE PUSH2 0xD43 JUMP JUMPDEST SUB PUSH2 0xACC JUMPI POP PUSH1 0x3 DUP2 ADD SLOAD PUSH1 0x1 PUSH1 0x1 PUSH1 0xA0 SHL SUB DUP7 DUP2 AND SWAP2 AND EQ PUSH2 0xB37 JUMP JUMPDEST PUSH1 0x3 PUSH1 0x1 DUP4 ADD SLOAD PUSH1 0x1 PUSH1 0xA0 SHL SWAP1 DIV PUSH1 0xFF AND PUSH1 0x4 DUP2 GT ISZERO PUSH2 0xAEE JUMPI PUSH2 0xAEE PUSH2 0xD43 JUMP JUMPDEST SUB PUSH2 0xB0C JUMPI POP PUSH1 0x3 DUP2 ADD SLOAD PUSH1 0x1 PUSH1 0x1 PUSH1 0xA0 SHL SUB DUP6 DUP2 AND SWAP2 AND EQ PUSH2 0xB37 JUMP JUMPDEST PUSH1 0x4 PUSH1 0x1 DUP4 ADD SLOAD PUSH1 0x1 PUSH1 0xA0 SHL SWAP1 DIV PUSH1 0xFF AND PUSH1 0x4 DUP2 GT ISZERO PUSH2 0xB2E JUMPI PUSH2 0xB2E PUSH2 0xD43 JUMP JUMPDEST SUB PUSH2 0xB37 JUMPI POP PUSH1 0x1 JUMPDEST DUP1 ISZERO PUSH2 0xBBE JUMPI PUSH1 0x6 DUP3 ADD DUP1 SLOAD SWAP1 PUSH0 PUSH2 0xB4E DUP4 PUSH2 0x105E JUMP JUMPDEST SWAP1 SWAP2 SSTORE POP POP PUSH1 0x5 DUP1 SLOAD SWAP1 PUSH0 PUSH2 0xB62 DUP4 PUSH2 0x105E JUMP JUMPDEST SWAP1 SWAP2 SSTORE POP POP PUSH1 0x1 DUP3 ADD SLOAD DUP3 SLOAD PUSH1 0x40 MLOAD PUSH1 0x1 PUSH1 0x1 PUSH1 0xA0 SHL SUB SWAP1 SWAP3 AND SWAP2 PUSH32 0x927B03A00752091B83795FF96F8DDBF820E1DBF4C5C813658635EBE2126FE080 SWAP1 PUSH2 0xBB5 SWAP1 DUP11 SWAP1 DUP11 SWAP1 DUP11 SWAP1 PUSH1 0x4 DUP11 ADD SWAP1 TIMESTAMP SWAP1 PUSH2 0x11C0 JUMP JUMPDEST PUSH1 0x40 MLOAD DUP1 SWAP2 SUB SWAP1 LOG3 JUMPDEST POP POP JUMPDEST PUSH1 0x1 ADD PUSH2 0x9FC JUMP JUMPDEST POP POP POP POP POP POP POP POP POP JUMP JUMPDEST PUSH0 SLOAD PUSH1 0x1 PUSH1 0x1 PUSH1 0xA0 SHL SUB AND CALLER EQ PUSH2 0x6DC JUMPI PUSH1 0x40 MLOAD PUSH4 0x118CDAA7 PUSH1 0xE0 SHL DUP2 MSTORE CALLER PUSH1 0x4 DUP3 ADD MSTORE PUSH1 0x24 ADD PUSH2 0x414 JUMP JUMPDEST PUSH0 DUP1 SLOAD PUSH1 0x1 PUSH1 0x1 PUSH1 0xA0 SHL SUB DUP4 DUP2 AND PUSH1 0x1 PUSH1 0x1 PUSH1 0xA0 SHL SUB NOT DUP4 AND DUP2 OR DUP5 SSTORE PUSH1 0x40 MLOAD SWAP2 SWAP1 SWAP3 AND SWAP3 DUP4 SWAP2 PUSH32 0x8BE0079C531659141344CD1FD0A4F28419497F9722A3DAAFE3B4186F6B6457E0 SWAP2 SWAP1 LOG3 POP POP JUMP JUMPDEST DUP1 CALLDATALOAD PUSH1 0x1 PUSH1 0x1 PUSH1 0xA0 SHL SUB DUP2 AND DUP2 EQ PUSH2 0xC65 JUMPI PUSH0 PUSH0 REVERT JUMPDEST SWAP2 SWAP1 POP JUMP JUMPDEST PUSH0 PUSH0 DUP4 PUSH1 0x1F DUP5 ADD SLT PUSH2 0xC7A JUMPI PUSH0 PUSH0 REVERT JUMPDEST POP DUP2 CALLDATALOAD PUSH8 0xFFFFFFFFFFFFFFFF DUP2 GT ISZERO PUSH2 0xC91 JUMPI PUSH0 PUSH0 REVERT JUMPDEST PUSH1 0x20 DUP4 ADD SWAP2 POP DUP4 PUSH1 0x20 DUP3 DUP6 ADD ADD GT ISZERO PUSH2 0xCA8 JUMPI PUSH0 PUSH0 REVERT JUMPDEST SWAP3 POP SWAP3 SWAP1 POP JUMP JUMPDEST PUSH0 PUSH0 PUSH0 PUSH1 0x40 DUP5 DUP7 SUB SLT ISZERO PUSH2 0xCC1 JUMPI PUSH0 PUSH0 REVERT JUMPDEST PUSH2 0xCCA DUP5 PUSH2 0xC4F JUMP JUMPDEST SWAP3 POP PUSH1 0x20 DUP5 ADD CALLDATALOAD PUSH8 0xFFFFFFFFFFFFFFFF DUP2 GT ISZERO PUSH2 0xCE5 JUMPI PUSH0 PUSH0 REVERT JUMPDEST PUSH2 0xCF1 DUP7 DUP3 DUP8 ADD PUSH2 0xC6A JUMP JUMPDEST SWAP5 SWAP8 SWAP1 SWAP7 POP SWAP4 SWAP5 POP POP POP POP JUMP JUMPDEST PUSH0 PUSH1 0x20 DUP3 DUP5 SUB SLT ISZERO PUSH2 0xD0E JUMPI PUSH0 PUSH0 REVERT JUMPDEST DUP2 CALLDATALOAD PUSH1 0x1 PUSH1 0x1 PUSH1 0xE0 SHL SUB NOT DUP2 AND DUP2 EQ PUSH2 0xD25 JUMPI PUSH0 PUSH0 REVERT JUMPDEST SWAP4 SWAP3 POP POP POP JUMP JUMPDEST PUSH0 PUSH1 0x20 DUP3 DUP5 SUB SLT ISZERO PUSH2 0xD3C JUMPI PUSH0 PUSH0 REVERT JUMPDEST POP CALLDATALOAD SWAP2 SWAP1 POP JUMP JUMPDEST PUSH4 0x4E487B71 PUSH1 0xE0 SHL PUSH0 MSTORE PUSH1 0x21 PUSH1 0x4 MSTORE PUSH1 0x24 PUSH0 REVERT JUMPDEST PUSH1 0x5 DUP2 LT PUSH2 0xD73 JUMPI PUSH4 0x4E487B71 PUSH1 0xE0 SHL PUSH0 MSTORE PUSH1 0x21 PUSH1 0x4 MSTORE PUSH1 0x24 PUSH0 REVERT JUMPDEST SWAP1 MSTORE JUMP JUMPDEST PUSH0 DUP2 MLOAD DUP1 DUP5 MSTORE DUP1 PUSH1 0x20 DUP5 ADD PUSH1 0x20 DUP7 ADD MCOPY PUSH0 PUSH1 0x20 DUP3 DUP7 ADD ADD MSTORE PUSH1 0x20 PUSH1 0x1F NOT PUSH1 0x1F DUP4 ADD AND DUP6 ADD ADD SWAP2 POP POP SWAP3 SWAP2 POP POP JUMP JUMPDEST DUP10 DUP2 MSTORE PUSH1 0x1 PUSH1 0x1 PUSH1 0xA0 SHL SUB DUP10 AND PUSH1 0x20 DUP3 ADD MSTORE PUSH2 0xDC4 PUSH1 0x40 DUP3 ADD DUP10 PUSH2 0xD57 JUMP JUMPDEST DUP7 PUSH1 0x60 DUP3 ADD MSTORE PUSH1 0x1 DUP1 PUSH1 0xA0 SHL SUB DUP7 AND PUSH1 0x80 DUP3 ADD MSTORE PUSH2 0x120 PUSH1 0xA0 DUP3 ADD MSTORE PUSH0 PUSH2 0xDEF PUSH2 0x120 DUP4 ADD DUP8 PUSH2 0xD77 JUMP JUMPDEST SWAP5 ISZERO ISZERO PUSH1 0xC0 DUP4 ADD MSTORE POP PUSH1 0xE0 DUP2 ADD SWAP3 SWAP1 SWAP3 MSTORE PUSH2 0x100 SWAP1 SWAP2 ADD MSTORE SWAP7 SWAP6 POP POP POP POP POP POP JUMP JUMPDEST PUSH1 0x20 DUP2 MSTORE DUP2 MLOAD PUSH1 0x20 DUP3 ADD MSTORE PUSH0 PUSH1 0x20 DUP4 ADD MLOAD PUSH2 0xE37 PUSH1 0x40 DUP5 ADD DUP3 PUSH1 0x1 PUSH1 0x1 PUSH1 0xA0 SHL SUB AND SWAP1 MSTORE JUMP JUMPDEST POP PUSH1 0x40 DUP4 ADD MLOAD PUSH2 0xE4A PUSH1 0x60 DUP5 ADD DUP3 PUSH2 0xD57 JUMP JUMPDEST POP PUSH1 0x60 DUP4 ADD MLOAD PUSH1 0x80 DUP4 ADD MSTORE PUSH1 0x80 DUP4 ADD MLOAD PUSH2 0xE6F PUSH1 0xA0 DUP5 ADD DUP3 PUSH1 0x1 PUSH1 0x1 PUSH1 0xA0 SHL SUB AND SWAP1 MSTORE JUMP JUMPDEST POP PUSH1 0xA0 DUP4 ADD MLOAD PUSH2 0x120 PUSH1 0xC0 DUP5 ADD MSTORE PUSH2 0xE8B PUSH2 0x140 DUP5 ADD DUP3 PUSH2 0xD77 JUMP JUMPDEST SWAP1 POP PUSH1 0xC0 DUP5 ADD MLOAD PUSH2 0xEA0 PUSH1 0xE0 DUP6 ADD DUP3 ISZERO ISZERO SWAP1 MSTORE JUMP JUMPDEST POP PUSH1 0xE0 DUP5 ADD MLOAD PUSH2 0x100 DUP5 ADD MSTORE PUSH2 0x100 DUP5 ADD MLOAD PUSH2 0x120 DUP5 ADD MSTORE DUP1 SWAP2 POP POP SWAP3 SWAP2 POP POP JUMP JUMPDEST PUSH0 PUSH1 0x20 DUP3 DUP5 SUB SLT ISZERO PUSH2 0xED2 JUMPI PUSH0 PUSH0 REVERT JUMPDEST PUSH2 0xD25 DUP3 PUSH2 0xC4F JUMP JUMPDEST PUSH1 0x20 DUP1 DUP3 MSTORE DUP3 MLOAD DUP3 DUP3 ADD DUP2 SWAP1 MSTORE PUSH0 SWAP2 DUP5 ADD SWAP1 PUSH1 0x40 DUP5 ADD SWAP1 DUP4 JUMPDEST DUP2 DUP2 LT ISZERO PUSH2 0xF12 JUMPI DUP4 MLOAD DUP4 MSTORE PUSH1 0x20 SWAP4 DUP5 ADD SWAP4 SWAP1 SWAP3 ADD SWAP2 PUSH1 0x1 ADD PUSH2 0xEF4 JUMP JUMPDEST POP SWAP1 SWAP6 SWAP5 POP POP POP POP POP JUMP JUMPDEST PUSH0 PUSH0 PUSH0 PUSH0 PUSH0 PUSH1 0x60 DUP7 DUP9 SUB SLT ISZERO PUSH2 0xF31 JUMPI PUSH0 PUSH0 REVERT JUMPDEST PUSH2 0xF3A DUP7 PUSH2 0xC4F JUMP JUMPDEST SWAP5 POP PUSH1 0x20 DUP7 ADD CALLDATALOAD PUSH8 0xFFFFFFFFFFFFFFFF DUP2 GT ISZERO PUSH2 0xF55 JUMPI PUSH0 PUSH0 REVERT JUMPDEST DUP7 ADD PUSH1 0x1F DUP2 ADD DUP9 SGT PUSH2 0xF65 JUMPI PUSH0 PUSH0 REVERT JUMPDEST DUP1 CALLDATALOAD PUSH8 0xFFFFFFFFFFFFFFFF DUP2 GT ISZERO PUSH2 0xF7B JUMPI PUSH0 PUSH0 REVERT JUMPDEST DUP9 PUSH1 0x20 DUP3 PUSH1 0x5 SHL DUP5 ADD ADD GT ISZERO PUSH2 0xF8F JUMPI PUSH0 PUSH0 REVERT JUMPDEST PUSH1 0x20 SWAP2 SWAP1 SWAP2 ADD SWAP5 POP SWAP3 POP PUSH1 0x40 DUP7 ADD CALLDATALOAD PUSH8 0xFFFFFFFFFFFFFFFF DUP2 GT ISZERO PUSH2 0xFB2 JUMPI PUSH0 PUSH0 REVERT JUMPDEST PUSH2 0xFBE DUP9 DUP3 DUP10 ADD PUSH2 0xC6A JUMP JUMPDEST SWAP7 SWAP10 SWAP6 SWAP9 POP SWAP4 SWAP7 POP SWAP3 SWAP5 SWAP4 SWAP3 POP POP POP JUMP JUMPDEST PUSH0 PUSH0 PUSH1 0x40 DUP4 DUP6 SUB SLT ISZERO PUSH2 0xFE0 JUMPI PUSH0 PUSH0 REVERT JUMPDEST PUSH2 0xFE9 DUP4 PUSH2 0xC4F JUMP JUMPDEST SWAP5 PUSH1 0x20 SWAP4 SWAP1 SWAP4 ADD CALLDATALOAD SWAP4 POP POP POP JUMP JUMPDEST PUSH0 PUSH0 PUSH0 PUSH1 0x40 DUP5 DUP7 SUB SLT ISZERO PUSH2 0x1009 JUMPI PUSH0 PUSH0 REVERT JUMPDEST DUP4 CALLDATALOAD SWAP3 POP PUSH1 0x20 DUP5 ADD CALLDATALOAD PUSH8 0xFFFFFFFFFFFFFFFF DUP2 GT ISZERO PUSH2 0xCE5 JUMPI PUSH0 PUSH0 REVERT JUMPDEST PUSH1 0x1 DUP2 DUP2 SHR SWAP1 DUP3 AND DUP1 PUSH2 0x103A JUMPI PUSH1 0x7F DUP3 AND SWAP2 POP JUMPDEST PUSH1 0x20 DUP3 LT DUP2 SUB PUSH2 0x1058 JUMPI PUSH4 0x4E487B71 PUSH1 0xE0 SHL PUSH0 MSTORE PUSH1 0x22 PUSH1 0x4 MSTORE PUSH1 0x24 PUSH0 REVERT JUMPDEST POP SWAP2 SWAP1 POP JUMP JUMPDEST PUSH0 PUSH1 0x1 DUP3 ADD PUSH2 0x107B JUMPI PUSH4 0x4E487B71 PUSH1 0xE0 SHL PUSH0 MSTORE PUSH1 0x11 PUSH1 0x4 MSTORE PUSH1 0x24 PUSH0 REVERT JUMPDEST POP PUSH1 0x1 ADD SWAP1 JUMP JUMPDEST PUSH4 0x4E487B71 PUSH1 0xE0 SHL PUSH0 MSTORE PUSH1 0x41 PUSH1 0x4 MSTORE PUSH1 0x24 PUSH0 REVERT JUMPDEST PUSH1 0x1F DUP3 GT ISZERO PUSH2 0x10DA JUMPI DUP1 PUSH0 MSTORE PUSH1 0x20 PUSH0 KECCAK256 PUSH1 0x1F DUP5 ADD PUSH1 0x5 SHR DUP2 ADD PUSH1 0x20 DUP6 LT ISZERO PUSH2 0x10BB JUMPI POP DUP1 JUMPDEST PUSH1 0x1F DUP5 ADD PUSH1 0x5 SHR DUP3 ADD SWAP2 POP JUMPDEST DUP2 DUP2 LT ISZERO PUSH2 0x6C4 JUMPI PUSH0 DUP2 SSTORE PUSH1 0x1 ADD PUSH2 0x10C7 JUMP JUMPDEST POP POP POP JUMP JUMPDEST DUP2 MLOAD PUSH8 0xFFFFFFFFFFFFFFFF DUP2 GT ISZERO PUSH2 0x10F9 JUMPI PUSH2 0x10F9 PUSH2 0x1082 JUMP JUMPDEST PUSH2 0x110D DUP2 PUSH2 0x1107 DUP5 SLOAD PUSH2 0x1026 JUMP JUMPDEST DUP5 PUSH2 0x1096 JUMP JUMPDEST PUSH1 0x20 PUSH1 0x1F DUP3 GT PUSH1 0x1 DUP2 EQ PUSH2 0x113F JUMPI PUSH0 DUP4 ISZERO PUSH2 0x1128 JUMPI POP DUP5 DUP3 ADD MLOAD JUMPDEST PUSH0 NOT PUSH1 0x3 DUP6 SWAP1 SHL SHR NOT AND PUSH1 0x1 DUP5 SWAP1 SHL OR DUP5 SSTORE PUSH2 0x6C4 JUMP JUMPDEST PUSH0 DUP5 DUP2 MSTORE PUSH1 0x20 DUP2 KECCAK256 PUSH1 0x1F NOT DUP6 AND SWAP2 JUMPDEST DUP3 DUP2 LT ISZERO PUSH2 0x116E JUMPI DUP8 DUP6 ADD MLOAD DUP3 SSTORE PUSH1 0x20 SWAP5 DUP6 ADD SWAP5 PUSH1 0x1 SWAP1 SWAP3 ADD SWAP2 ADD PUSH2 0x114E JUMP JUMPDEST POP DUP5 DUP3 LT ISZERO PUSH2 0x118B JUMPI DUP7 DUP5 ADD MLOAD PUSH0 NOT PUSH1 0x3 DUP8 SWAP1 SHL PUSH1 0xF8 AND SHR NOT AND DUP2 SSTORE JUMPDEST POP POP POP POP PUSH1 0x1 SWAP1 DUP2 SHL ADD SWAP1 SSTORE POP JUMP JUMPDEST PUSH1 0x20 DUP2 MSTORE PUSH0 PUSH2 0xD25 PUSH1 0x20 DUP4 ADD DUP5 PUSH2 0xD77 JUMP JUMPDEST PUSH4 0x4E487B71 PUSH1 0xE0 SHL PUSH0 MSTORE PUSH1 0x32 PUSH1 0x4 MSTORE PUSH1 0x24 PUSH0 REVERT JUMPDEST PUSH1 0x1 PUSH1 0x1 PUSH1 0xA0 SHL SUB DUP7 DUP2 AND DUP3 MSTORE DUP6 AND PUSH1 0x20 DUP3 ADD MSTORE PUSH1 0x40 DUP2 ADD DUP5 SWAP1 MSTORE PUSH1 0xA0 PUSH1 0x60 DUP3 ADD MSTORE DUP3 SLOAD PUSH0 SWAP1 DUP2 SWAP1 PUSH2 0x11F1 DUP2 PUSH2 0x1026 JUMP JUMPDEST DUP1 PUSH1 0xA0 DUP7 ADD MSTORE PUSH1 0x1 DUP3 AND PUSH0 DUP2 EQ PUSH2 0x120F JUMPI PUSH1 0x1 DUP2 EQ PUSH2 0x122B JUMPI PUSH2 0x125C JUMP JUMPDEST PUSH1 0xFF NOT DUP4 AND PUSH1 0xC0 DUP8 ADD MSTORE PUSH1 0xC0 DUP3 ISZERO ISZERO PUSH1 0x5 SHL DUP8 ADD ADD SWAP4 POP PUSH2 0x125C JUMP JUMPDEST DUP8 PUSH0 MSTORE PUSH1 0x20 PUSH0 KECCAK256 PUSH0 JUMPDEST DUP4 DUP2 LT ISZERO PUSH2 0x1253 JUMPI DUP2 SLOAD DUP9 DUP3 ADD PUSH1 0xC0 ADD MSTORE PUSH1 0x1 SWAP1 SWAP2 ADD SWAP1 PUSH1 0x20 ADD PUSH2 0x1234 JUMP JUMPDEST DUP8 ADD PUSH1 0xC0 ADD SWAP5 POP POP JUMPDEST POP POP POP PUSH1 0x80 SWAP3 SWAP1 SWAP3 ADD SWAP3 SWAP1 SWAP3 MSTORE SWAP6 SWAP5 POP POP POP POP POP JUMP INVALID LOG2 PUSH5 0x6970667358 0x22 SLT KECCAK256 0xE9 PUSH4 0xBE60BA73 SWAPN 0x80 0xE LOG2 0xBB 0x4D 0xC0 DUP3 PUSH25 0xDAB2A4AF4143DB72DDC2E71599D7DC1C8464736F6C63430008 0x1E STOP CALLER "},"methodIdentifiers":{"createAmountAlert(uint256,string)":"c361942c","createFromAddressAlert(address,string)":"00cb8264","createToAddressAlert(address,string)":"d9d907f6","deactivateRule(uint256)":"3a758ccc","getRule(uint256)":"48462037","getUserRuleIds(address)":"5180b1d0","onEvent(address,bytes32[],bytes)":"53edf33d","owner()":"8da5cb5b","renounceOwnership()":"715018a6","rules(uint256)":"04d6ded4","supportsInterface(bytes4)":"01ffc9a7","totalAlertsEmitted()":"f4c3ac8a","totalRulesCreated()":"e7fd03b5","transferOwnership(address)":"f2fde38b","userRules(address,uint256)":"8baaf15b"}}}}}