{
  "_format": "hh-sol-artifact-1",
  "contractName": "WhaleDetector",
  "sourceName": "src/WhaleDetector.sol",
  "abi": [
    {
      "inputs": [],
      "stateMutability": "nonpayable",
      "type": "constructor"
    },
    {
      "inputs": [],
      "name": "OnlyReactivityPrecompile",
      "type": "error"
    },
    {
      "inputs": [
        {
          "internalType": "address",
          "name": "owner",
          "type": "address"
        }
      ],
      "name": "OwnableInvalidOwner",
      "type": "error"
    },
    {
      "inputs": [
        {
          "internalType": "address",
          "name": "account",
          "type": "address"
        }
      ],
      "name": "OwnableUnauthorizedAccount",
      "type": "error"
    },
    {
      "anonymous": false,
      "inputs": [
        {
          "indexed": true,
          "internalType": "address",
          "name": "previousOwner",
          "type": "address"
        },
        {
          "indexed": true,
          "internalType": "address",
          "name": "newOwner",
          "type": "address"
        }
      ],
      "name": "OwnershipTransferred",
      "type": "event"
    },
    {
      "anonymous": false,
      "inputs": [
        {
          "indexed": false,
          "internalType": "uint256",
          "name": "oldThreshold",
          "type": "uint256"
        },
        {
          "indexed": false,
          "internalType": "uint256",
          "name": "newThreshold",
          "type": "uint256"
        }
      ],
      "name": "ThresholdUpdated",
      "type": "event"
    },
    {
      "anonymous": false,
      "inputs": [
        {
          "indexed": true,
          "internalType": "address",
          "name": "from",
          "type": "address"
        },
        {
          "indexed": true,
          "internalType": "address",
          "name": "to",
          "type": "address"
        },
        {
          "indexed": false,
          "internalType": "uint256",
          "name": "amount",
          "type": "uint256"
        },
        {
          "indexed": false,
          "internalType": "uint256",
          "name": "alertId",
          "type": "uint256"
        },
        {
          "indexed": false,
          "internalType": "uint256",
          "name": "timestamp",
          "type": "uint256"
        }
      ],
      "name": "WhaleAlert",
      "type": "event"
    },
    {
      "inputs": [],
      "name": "getThresholdInSTT",
      "outputs": [
        {
          "internalType": "uint256",
          "name": "",
          "type": "uint256"
        }
      ],
      "stateMutability": "view",
      "type": "function"
    },
    {
      "inputs": [
        {
          "internalType": "address",
          "name": "emitter",
          "type": "address"
        },
        {
          "internalType": "bytes32[]",
          "name": "eventTopics",
          "type": "bytes32[]"
        },
        {
          "internalType": "bytes",
          "name": "data",
          "type": "bytes"
        }
      ],
      "name": "onEvent",
      "outputs": [],
      "stateMutability": "nonpayable",
      "type": "function"
    },
    {
      "inputs": [],
      "name": "owner",
      "outputs": [
        {
          "internalType": "address",
          "name": "",
          "type": "address"
        }
      ],
      "stateMutability": "view",
      "type": "function"
    },
    {
      "inputs": [],
      "name": "renounceOwnership",
      "outputs": [],
      "stateMutability": "nonpayable",
      "type": "function"
    },
    {
      "inputs": [
        {
          "internalType": "uint256",
          "name": "newThreshold",
          "type": "uint256"
        }
      ],
      "name": "setWhaleThreshold",
      "outputs": [],
      "stateMutability": "nonpayable",
      "type": "function"
    },
    {
      "inputs": [
        {
          "internalType": "bytes4",
          "name": "interfaceId",
          "type": "bytes4"
        }
      ],
      "name": "supportsInterface",
      "outputs": [
        {
          "internalType": "bool",
          "name": "",
          "type": "bool"
        }
      ],
      "stateMutability": "pure",
      "type": "function"
    },
    {
      "inputs": [],
      "name": "totalWhaleAlerts",
      "outputs": [
        {
          "internalType": "uint256",
          "name": "",
          "type": "uint256"
        }
      ],
      "stateMutability": "view",
      "type": "function"
    },
    {
      "inputs": [
        {
          "internalType": "address",
          "name": "newOwner",
          "type": "address"
        }
      ],
      "name": "transferOwnership",
      "outputs": [],
      "stateMutability": "nonpayable",
      "type": "function"
    },
    {
      "inputs": [],
      "name": "whaleThreshold",
      "outputs": [
        {
          "internalType": "uint256",
          "name": "",
          "type": "uint256"
        }
      ],
      "stateMutability": "view",
      "type": "function"
    }
  ],
  "bytecode": "0x608060405269152d02c7e14af6800000600155348015601c575f5ffd5b503380604157604051631e4fbdf760e01b81525f600482015260240160405180910390fd5b604881604d565b50609c565b5f80546001600160a01b038381166001600160a01b0319831681178455604051919092169283917f8be0079c531659141344cd1fd0a4f28419497f9722a3daafe3b4186f6b6457e09190a35050565b6105fa806100a95f395ff3fe608060405234801561000f575f5ffd5b5060043610610090575f3560e01c80639636cb7c116100635780639636cb7c146100f35780639a3bfdf514610109578063bbe7ea4c14610112578063f2fde38b1461011b578063ffdd60f91461012e575f5ffd5b806301ffc9a71461009457806353edf33d146100bc578063715018a6146100d15780638da5cb5b146100d9575b5f5ffd5b6100a76100a23660046103fd565b610141565b60405190151581526020015b60405180910390f35b6100cf6100ca36600461048b565b610177565b005b6100cf6101ad565b5f546040516001600160a01b0390911681526020016100b3565b6100fb6101c0565b6040519081526020016100b3565b6100fb60015481565b6100fb60025481565b6100cf61012936600461053d565b6101dc565b6100cf61013c366004610556565b61021e565b5f6301ffc9a760e01b6001600160e01b03198316148061017157506353edf33d60e01b6001600160e01b03198316145b92915050565b33610100146101995760405163191fbb7560e01b815260040160405180910390fd5b6101a685858585856102ba565b5050505050565b6101b5610382565b6101be5f6103ae565b565b5f670de0b6b3a76400006001546101d7919061056d565b905090565b6101e4610382565b6001600160a01b03811661021257604051631e4fbdf760e01b81525f60048201526024015b60405180910390fd5b61021b816103ae565b50565b610226610382565b5f81116102755760405162461bcd60e51b815260206004820152601c60248201527f5468726573686f6c64206861727573206c6562696820646172692030000000006044820152606401610209565b600180549082905560408051828152602081018490527fb06a54caabe58475c86c2bf9df3f2f06dd1213e9e10659c293117fe4893b274b910160405180910390a15050565b5f848460018181106102ce576102ce61058c565b905060200201355f1c90505f858560028181106102ed576102ed61058c565b602002919091013591505f905061030684860186610556565b905060015481106103785760028054905f610320836105a0565b90915550506002546040805183815260208101929092524282820152516001600160a01b0384811692908616917f3933880bc7d26241e1d8987184dcd24226216582ffd51058e82e7cce4c900eb99181900360600190a35b5050505050505050565b5f546001600160a01b031633146101be5760405163118cdaa760e01b8152336004820152602401610209565b5f80546001600160a01b038381166001600160a01b0319831681178455604051919092169283917f8be0079c531659141344cd1fd0a4f28419497f9722a3daafe3b4186f6b6457e09190a35050565b5f6020828403121561040d575f5ffd5b81356001600160e01b031981168114610424575f5ffd5b9392505050565b80356001600160a01b0381168114610441575f5ffd5b919050565b5f5f83601f840112610456575f5ffd5b50813567ffffffffffffffff81111561046d575f5ffd5b602083019150836020828501011115610484575f5ffd5b9250929050565b5f5f5f5f5f6060868803121561049f575f5ffd5b6104a88661042b565b9450602086013567ffffffffffffffff8111156104c3575f5ffd5b8601601f810188136104d3575f5ffd5b803567ffffffffffffffff8111156104e9575f5ffd5b8860208260051b84010111156104fd575f5ffd5b60209190910194509250604086013567ffffffffffffffff811115610520575f5ffd5b61052c88828901610446565b969995985093965092949392505050565b5f6020828403121561054d575f5ffd5b6104248261042b565b5f60208284031215610566575f5ffd5b5035919050565b5f8261058757634e487b7160e01b5f52601260045260245ffd5b500490565b634e487b7160e01b5f52603260045260245ffd5b5f600182016105bd57634e487b7160e01b5f52601160045260245ffd5b506001019056fea264697066735822122091fefd6efa4a370ab6391c8e8520addb38c3e680f06a9b08b544491955adbad464736f6c634300081e0033",
  "linkReferences": {},
  "deployedLinkReferences": {}
}